{
	"data": {
		"bytecode": {
			"linkReferences": {},
			"object": "6080604052600160045534801562000015575f80fd5b5073ec39a0c27b4e7f6c5a02f6aa52f7153cf8c210f160065f6101000a81548173ffffffffffffffffffffffffffffffffffffffff021916908373ffffffffffffffffffffffffffffffffffffffff16021790555067016345785d8a00006009819055506200009e73779877a7b0d9e8603169ddbd7836e478b46247896200013c60201b60201c565b620000e46040518060400160405280602081526020017f66336439303463333531396134336336396230616261356236643761373866368152506200017f60201b60201c565b600781905550620001306040518060400160405280602081526020017f31316538616235373365646534623937386234646430363139633434643436378152506200017f60201b60201c565b600881905550620001a7565b8060025f6101000a81548173ffffffffffffffffffffffffffffffffffffffff021916908373ffffffffffffffffffffffffffffffffffffffff16021790555050565b5f808290505f81510362000199575f801b915050620001a2565b60208301519150505b919050565b6120a580620001b55f395ff3fe608060405234801561000f575f80fd5b50600436106100a7575f3560e01c806368e963281161006f57806368e963281461017a57806394ef486b14610184578063a8c8ed29146101b7578063cfb51928146101c1578063e2b0d1e5146101f1578063f77750991461020d576100a7565b80630a2559cc146100ab5780632fccbcc7146100de5780633b2fb9aa146100fc5780634389130d146101185780635e56557f14610149575b5f80fd5b6100c560048036038101906100c09190611511565b61022b565b6040516100d59493929190611554565b60405180910390f35b6100e6610257565b6040516100f3919061167b565b60405180910390f35b610116600480360381019061011191906116f8565b6102c6565b005b610132600480360381019061012d9190611736565b6104d2565b604051610140929190611761565b60405180910390f35b610163600480360381019061015e9190611736565b610501565b604051610171929190611761565b60405180910390f35b610182610530565b005b61019e60048036038101906101999190611511565b6106a5565b6040516101ae9493929190611554565b60405180910390f35b6101bf6107bb565b005b6101db60048036038101906101d691906118c4565b610804565b6040516101e8919061191a565b60405180910390f35b61020b600480360381019061020691906116f8565b61082a565b005b610215610a09565b604051610222919061167b565b60405180910390f35b600a602052805f5260405f205f91509050805f0154908060010154908060020154908060030154905084565b6060600b805480602002602001604051908101604052809291908181526020015f905b828210156102bd578382905f5260205f2090600202016040518060400160405290815f82015481526020016001820154815250508152602001906001019061027a565b50505050905090565b8160055f8281526020019081526020015f205f9054906101000a900473ffffffffffffffffffffffffffffffffffffffff1673ffffffffffffffffffffffffffffffffffffffff163373ffffffffffffffffffffffffffffffffffffffff1614610365576040517f08c379a000000000000000000000000000000000000000000000000000000000815260040161035c906119b3565b60405180910390fd5b60055f8281526020019081526020015f205f6101000a81549073ffffffffffffffffffffffffffffffffffffffff0219169055807f7cc135e0cebb02c3480ae5d74d377283180a2601f8f644edf7987b009316c63a60405160405180910390a281837f1ca8663227a7fe9919713a01d344afbb434e234f35a3e540a6ad924f88771f3860405160405180910390a381600a5f3373ffffffffffffffffffffffffffffffffffffffff1673ffffffffffffffffffffffffffffffffffffffff1681526020019081526020015f206001018190555042600a5f3373ffffffffffffffffffffffffffffffffffffffff1673ffffffffffffffffffffffffffffffffffffffff1681526020019081526020015f205f0181905550600b604051806040016040528042815260200184815250908060018154018082558091505060019003905f5260205f2090600202015f909190919091505f820151815f0155602082015181600101555050505050565b600b81815481106104e1575f80fd5b905f5260205f2090600202015f91509050805f0154908060010154905082565b600c8181548110610510575f80fd5b905f5260205f2090600202015f91509050805f0154908060010154905082565b5f61054560075430633b2fb9aa60e01b610a78565b90506105a96040518060400160405280600381526020017f676574000000000000000000000000000000000000000000000000000000000081525060405180608001604052806046815260200161202a6046913983610aa99092919063ffffffff16565b6106286040518060400160405280600481526020017f70617468000000000000000000000000000000000000000000000000000000008152506040518060400160405280600381526020017f555344000000000000000000000000000000000000000000000000000000000081525083610aa99092919063ffffffff16565b6106736040518060400160405280600581526020017f74696d6573000000000000000000000000000000000000000000000000000000815250606483610adc9092919063ffffffff16565b6106a160065f9054906101000a900473ffffffffffffffffffffffffffffffffffffffff1682600954610b0f565b5050565b5f805f80600a5f8673ffffffffffffffffffffffffffffffffffffffff1673ffffffffffffffffffffffffffffffffffffffff1681526020019081526020015f205f0154600a5f8773ffffffffffffffffffffffffffffffffffffffff1673ffffffffffffffffffffffffffffffffffffffff1681526020019081526020015f2060010154600a5f8873ffffffffffffffffffffffffffffffffffffffff1673ffffffffffffffffffffffffffffffffffffffff1681526020019081526020015f2060020154600a5f8973ffffffffffffffffffffffffffffffffffffffff1673ffffffffffffffffffffffffffffffffffffffff1681526020019081526020015f206003015493509350935093509193509193565b5f6107d06008543063e2b0d1e560e01b610a78565b905061080060065f9054906101000a900473ffffffffffffffffffffffffffffffffffffffff1682600954610b0f565b5050565b5f808290505f81510361081c575f801b915050610825565b60208301519150505b919050565b8160055f8281526020019081526020015f205f9054906101000a900473ffffffffffffffffffffffffffffffffffffffff1673ffffffffffffffffffffffffffffffffffffffff163373ffffffffffffffffffffffffffffffffffffffff16146108c9576040517f08c379a00000000000000000000000000000000000000000000000000000000081526004016108c0906119b3565b60405180910390fd5b60055f8281526020019081526020015f205f6101000a81549073ffffffffffffffffffffffffffffffffffffffff0219169055807f7cc135e0cebb02c3480ae5d74d377283180a2601f8f644edf7987b009316c63a60405160405180910390a281600a5f3373ffffffffffffffffffffffffffffffffffffffff1673ffffffffffffffffffffffffffffffffffffffff1681526020019081526020015f206003018190555042600a5f3373ffffffffffffffffffffffffffffffffffffffff1673ffffffffffffffffffffffffffffffffffffffff1681526020019081526020015f2060020181905550600c604051806040016040528042815260200184815250908060018154018082558091505060019003905f5260205f2090600202015f909190919091505f820151815f0155602082015181600101555050505050565b6060600c805480602002602001604051908101604052809291908181526020015f905b82821015610a6f578382905f5260205f2090600202016040518060400160405290815f820154815260200160018201548152505081526020019060010190610a2c565b50505050905090565b610a80611424565b610a88611424565b610a9f85858584610bd6909392919063ffffffff16565b9150509392505050565b610ac0828460800151610c8590919063ffffffff16565b610ad7818460800151610c8590919063ffffffff16565b505050565b610af3828460800151610c8590919063ffffffff16565b610b0a818460800151610caa90919063ffffffff16565b505050565b5f806004549050600181610b2391906119fe565b6004819055505f634042994660e01b5f80875f01513089604001518760018c608001515f0151604051602401610b60989796959493929190611af4565b604051602081830303815290604052907bffffffffffffffffffffffffffffffffffffffffffffffffffffffff19166020820180517bffffffffffffffffffffffffffffffffffffffffffffffffffffffff83818316178352505050509050610bcb86838684610d55565b925050509392505050565b610bde611424565b610bee8560800151610100610ee2565b5083855f01818152505082856020019073ffffffffffffffffffffffffffffffffffffffff16908173ffffffffffffffffffffffffffffffffffffffff16815250508185604001907bffffffffffffffffffffffffffffffffffffffffffffffffffffffff191690817bffffffffffffffffffffffffffffffffffffffffffffffffffffffff191681525050849050949350505050565b610c928260038351610f4a565b610ca581836110cf90919063ffffffff16565b505050565b7fffffffffffffffffffffffffffffffffffffffffffffffff0000000000000000811215610ce157610cdc82826110f0565b610d51565b67ffffffffffffffff811315610d0057610cfb8282611167565b610d50565b5f8112610d1757610d12825f83610f4a565b610d4f565b610d4e826001837fffffffffffffffffffffffffffffffffffffffffffffffffffffffffffffffff610d499190611b80565b610f4a565b5b5b5b5050565b5f3084604051602001610d69929190611c71565b6040516020818303038152906040528051906020012090508460055f8381526020019081526020015f205f6101000a81548173ffffffffffffffffffffffffffffffffffffffff021916908373ffffffffffffffffffffffffffffffffffffffff160217905550807fb5e6e01e79f91267dc17b4e6314d5d4d03593d2ceee0fbb452b750bd70ea5af960405160405180910390a260025f9054906101000a900473ffffffffffffffffffffffffffffffffffffffff1673ffffffffffffffffffffffffffffffffffffffff16634000aea08685856040518463ffffffff1660e01b8152600401610e5b93929190611c9c565b6020604051808303815f875af1158015610e77573d5f803e3d5ffd5b505050506040513d601f19601f82011682018060405250810190610e9b9190611d0d565b610eda576040517f08c379a0000000000000000000000000000000000000000000000000000000008152600401610ed190611da8565b60405180910390fd5b949350505050565b610eea61148d565b5f602083610ef89190611df3565b14610f2457602082610f0a9190611df3565b6020610f169190611e23565b82610f2191906119fe565b91505b818360200181815250506040518084525f81528281016020016040525082905092915050565b60178167ffffffffffffffff1611610f8157610f7b8160058460ff16901b60ff1617846111b390919063ffffffff16565b506110ca565b60ff8167ffffffffffffffff1611610fd757610fb0601860058460ff16901b17846111b390919063ffffffff16565b50610fd18167ffffffffffffffff166001856111d29092919063ffffffff16565b506110c9565b61ffff8167ffffffffffffffff161161102e57611007601960058460ff16901b17846111b390919063ffffffff16565b506110288167ffffffffffffffff166002856111d29092919063ffffffff16565b506110c8565b63ffffffff8167ffffffffffffffff161161108757611060601a60058460ff16901b17846111b390919063ffffffff16565b506110818167ffffffffffffffff166004856111d29092919063ffffffff16565b506110c7565b6110a4601b60058460ff16901b17846111b390919063ffffffff16565b506110c58167ffffffffffffffff166008856111d29092919063ffffffff16565b505b5b5b5b505050565b6110d761148d565b6110e883845f0151518485516111f3565b905092915050565b61110e60036005600660ff16901b17836111b390919063ffffffff16565b5061116382827fffffffffffffffffffffffffffffffffffffffffffffffffffffffffffffffff61113f9190611b80565b60405160200161114f9190611e56565b6040516020818303038152906040526112df565b5050565b61118560026005600660ff16901b17836111b390919063ffffffff16565b506111af828260405160200161119b9190611e56565b6040516020818303038152906040526112df565b5050565b6111bb61148d565b6111ca83845f01515184611304565b905092915050565b6111da61148d565b6111ea84855f015151858561135a565b90509392505050565b6111fb61148d565b8251821115611208575f80fd5b8460200151828561121991906119fe565b111561124e5761124d85600261123e8860200151888761123991906119fe565b6113e7565b6112489190611e6f565b611402565b5b5f8086518051876020830101935080888701111561126c5787860182525b60208701925050505b602084106112b3578051825260208261128e91906119fe565b915060208161129d91906119fe565b90506020846112ac9190611e23565b9350611275565b5f6001856020036101000a03905080198251168184511681811785525050508692505050949350505050565b6112ec8260028351610f4a565b6112ff81836110cf90919063ffffffff16565b505050565b61130c61148d565b8360200151831061133257611331846002866020015161132c9190611e6f565b611402565b5b8351805160208583010184815381860361134d576001820183525b5050508390509392505050565b61136261148d565b8460200151848361137391906119fe565b111561139b5761139a856002868561138b91906119fe565b6113959190611e6f565b611402565b5b5f6001836101006113ac9190611fdf565b6113b69190611e23565b905085518386820101858319825116178152815185880111156113d95784870182525b505085915050949350505050565b5f818311156113f8578290506113fc565b8190505b92915050565b5f825f015190506114138383610ee2565b5061141e83826110cf565b50505050565b6040518060a001604052805f80191681526020015f73ffffffffffffffffffffffffffffffffffffffff1681526020015f7bffffffffffffffffffffffffffffffffffffffffffffffffffffffff191681526020015f815260200161148761148d565b81525090565b6040518060400160405280606081526020015f81525090565b5f604051905090565b5f80fd5b5f80fd5b5f73ffffffffffffffffffffffffffffffffffffffff82169050919050565b5f6114e0826114b7565b9050919050565b6114f0816114d6565b81146114fa575f80fd5b50565b5f8135905061150b816114e7565b92915050565b5f60208284031215611526576115256114af565b5b5f611533848285016114fd565b91505092915050565b5f819050919050565b61154e8161153c565b82525050565b5f6080820190506115675f830187611545565b6115746020830186611545565b6115816040830185611545565b61158e6060830184611545565b95945050505050565b5f81519050919050565b5f82825260208201905092915050565b5f819050602082019050919050565b6115c98161153c565b82525050565b604082015f8201516115e35f8501826115c0565b5060208201516115f660208501826115c0565b50505050565b5f61160783836115cf565b60408301905092915050565b5f602082019050919050565b5f61162982611597565b61163381856115a1565b935061163e836115b1565b805f5b8381101561166e57815161165588826115fc565b975061166083611613565b925050600181019050611641565b5085935050505092915050565b5f6020820190508181035f830152611693818461161f565b905092915050565b5f819050919050565b6116ad8161169b565b81146116b7575f80fd5b50565b5f813590506116c8816116a4565b92915050565b6116d78161153c565b81146116e1575f80fd5b50565b5f813590506116f2816116ce565b92915050565b5f806040838503121561170e5761170d6114af565b5b5f61171b858286016116ba565b925050602061172c858286016116e4565b9150509250929050565b5f6020828403121561174b5761174a6114af565b5b5f611758848285016116e4565b91505092915050565b5f6040820190506117745f830185611545565b6117816020830184611545565b9392505050565b5f80fd5b5f80fd5b5f601f19601f8301169050919050565b7f4e487b71000000000000000000000000000000000000000000000000000000005f52604160045260245ffd5b6117d682611790565b810181811067ffffffffffffffff821117156117f5576117f46117a0565b5b80604052505050565b5f6118076114a6565b905061181382826117cd565b919050565b5f67ffffffffffffffff821115611832576118316117a0565b5b61183b82611790565b9050602081019050919050565b828183375f83830152505050565b5f61186861186384611818565b6117fe565b9050828152602081018484840111156118845761188361178c565b5b61188f848285611848565b509392505050565b5f82601f8301126118ab576118aa611788565b5b81356118bb848260208601611856565b91505092915050565b5f602082840312156118d9576118d86114af565b5b5f82013567ffffffffffffffff8111156118f6576118f56114b3565b5b61190284828501611897565b91505092915050565b6119148161169b565b82525050565b5f60208201905061192d5f83018461190b565b92915050565b5f82825260208201905092915050565b7f536f75726365206d75737420626520746865206f7261636c65206f66207468655f8201527f2072657175657374000000000000000000000000000000000000000000000000602082015250565b5f61199d602883611933565b91506119a882611943565b604082019050919050565b5f6020820190508181035f8301526119ca81611991565b9050919050565b7f4e487b71000000000000000000000000000000000000000000000000000000005f52601160045260245ffd5b5f611a088261153c565b9150611a138361153c565b9250828201905080821115611a2b57611a2a6119d1565b5b92915050565b611a3a816114d6565b82525050565b5f7fffffffff0000000000000000000000000000000000000000000000000000000082169050919050565b611a7481611a40565b82525050565b5f81519050919050565b5f82825260208201905092915050565b5f5b83811015611ab1578082015181840152602081019050611a96565b5f8484015250505050565b5f611ac682611a7a565b611ad08185611a84565b9350611ae0818560208601611a94565b611ae981611790565b840191505092915050565b5f61010082019050611b085f83018b611a31565b611b15602083018a611545565b611b22604083018961190b565b611b2f6060830188611a31565b611b3c6080830187611a6b565b611b4960a0830186611545565b611b5660c0830185611545565b81810360e0830152611b688184611abc565b90509998505050505050505050565b5f819050919050565b5f611b8a82611b77565b9150611b9583611b77565b925082820390508181125f8412168282135f851215161715611bba57611bb96119d1565b5b92915050565b5f819050919050565b5f611be3611bde611bd9846114b7565b611bc0565b6114b7565b9050919050565b5f611bf482611bc9565b9050919050565b5f611c0582611bea565b9050919050565b5f8160601b9050919050565b5f611c2282611c0c565b9050919050565b5f611c3382611c18565b9050919050565b611c4b611c4682611bfb565b611c29565b82525050565b5f819050919050565b611c6b611c668261153c565b611c51565b82525050565b5f611c7c8285611c3a565b601482019150611c8c8284611c5a565b6020820191508190509392505050565b5f606082019050611caf5f830186611a31565b611cbc6020830185611545565b8181036040830152611cce8184611abc565b9050949350505050565b5f8115159050919050565b611cec81611cd8565b8114611cf6575f80fd5b50565b5f81519050611d0781611ce3565b92915050565b5f60208284031215611d2257611d216114af565b5b5f611d2f84828501611cf9565b91505092915050565b7f756e61626c6520746f207472616e73666572416e6443616c6c20746f206f72615f8201527f636c650000000000000000000000000000000000000000000000000000000000602082015250565b5f611d92602383611933565b9150611d9d82611d38565b604082019050919050565b5f6020820190508181035f830152611dbf81611d86565b9050919050565b7f4e487b71000000000000000000000000000000000000000000000000000000005f52601260045260245ffd5b5f611dfd8261153c565b9150611e088361153c565b925082611e1857611e17611dc6565b5b828206905092915050565b5f611e2d8261153c565b9150611e388361153c565b9250828203905081811115611e5057611e4f6119d1565b5b92915050565b5f602082019050611e695f830184611545565b92915050565b5f611e798261153c565b9150611e848361153c565b9250828202611e928161153c565b91508282048414831517611ea957611ea86119d1565b5b5092915050565b5f8160011c9050919050565b5f808291508390505b6001851115611f0557808604811115611ee157611ee06119d1565b5b6001851615611ef05780820291505b8081029050611efe85611eb0565b9450611ec5565b94509492505050565b5f82611f1d5760019050611fd8565b81611f2a575f9050611fd8565b8160018114611f405760028114611f4a57611f79565b6001915050611fd8565b60ff841115611f5c57611f5b6119d1565b5b8360020a915084821115611f7357611f726119d1565b5b50611fd8565b5060208310610133831016604e8410600b8410161715611fae5782820a905083811115611fa957611fa86119d1565b5b611fd8565b611fbb8484846001611ebc565b92509050818404811115611fd257611fd16119d1565b5b81810290505b9392505050565b5f611fe98261153c565b9150611ff48361153c565b92506120217fffffffffffffffffffffffffffffffffffffffffffffffffffffffffffffffff8484611f0e565b90509291505056fe68747470733a2f2f786b38736967636366342e657865637574652d6170692e75732d656173742d312e616d617a6f6e6177732e636f6d2f70726f642f70726f64756374696f6ea2646970667358221220dc2160eeebdadb154bec4b80e9601c5169e1e8911cb0fed94f45ca488e99c97464736f6c63430008140033",
			"opcodes": "PUSH1 0x80 PUSH1 0x40 MSTORE PUSH1 0x1 PUSH1 0x4 SSTORE CALLVALUE DUP1 ISZERO PUSH3 0x15 JUMPI PUSH0 DUP1 REVERT JUMPDEST POP PUSH20 0xEC39A0C27B4E7F6C5A02F6AA52F7153CF8C210F1 PUSH1 0x6 PUSH0 PUSH2 0x100 EXP DUP2 SLOAD DUP2 PUSH20 0xFFFFFFFFFFFFFFFFFFFFFFFFFFFFFFFFFFFFFFFF MUL NOT AND SWAP1 DUP4 PUSH20 0xFFFFFFFFFFFFFFFFFFFFFFFFFFFFFFFFFFFFFFFF AND MUL OR SWAP1 SSTORE POP PUSH8 0x16345785D8A0000 PUSH1 0x9 DUP2 SWAP1 SSTORE POP PUSH3 0x9E PUSH20 0x779877A7B0D9E8603169DDBD7836E478B4624789 PUSH3 0x13C PUSH1 0x20 SHL PUSH1 0x20 SHR JUMP JUMPDEST PUSH3 0xE4 PUSH1 0x40 MLOAD DUP1 PUSH1 0x40 ADD PUSH1 0x40 MSTORE DUP1 PUSH1 0x20 DUP2 MSTORE PUSH1 0x20 ADD PUSH32 0x6633643930346333353139613433633639623061626135623664376137386636 DUP2 MSTORE POP PUSH3 0x17F PUSH1 0x20 SHL PUSH1 0x20 SHR JUMP JUMPDEST PUSH1 0x7 DUP2 SWAP1 SSTORE POP PUSH3 0x130 PUSH1 0x40 MLOAD DUP1 PUSH1 0x40 ADD PUSH1 0x40 MSTORE DUP1 PUSH1 0x20 DUP2 MSTORE PUSH1 0x20 ADD PUSH32 0x3131653861623537336564653462393738623464643036313963343464343637 DUP2 MSTORE POP PUSH3 0x17F PUSH1 0x20 SHL PUSH1 0x20 SHR JUMP JUMPDEST PUSH1 0x8 DUP2 SWAP1 SSTORE POP PUSH3 0x1A7 JUMP JUMPDEST DUP1 PUSH1 0x2 PUSH0 PUSH2 0x100 EXP DUP2 SLOAD DUP2 PUSH20 0xFFFFFFFFFFFFFFFFFFFFFFFFFFFFFFFFFFFFFFFF MUL NOT AND SWAP1 DUP4 PUSH20 0xFFFFFFFFFFFFFFFFFFFFFFFFFFFFFFFFFFFFFFFF AND MUL OR SWAP1 SSTORE POP POP JUMP JUMPDEST PUSH0 DUP1 DUP3 SWAP1 POP PUSH0 DUP2 MLOAD SUB PUSH3 0x199 JUMPI PUSH0 DUP1 SHL SWAP2 POP POP PUSH3 0x1A2 JUMP JUMPDEST PUSH1 0x20 DUP4 ADD MLOAD SWAP2 POP POP JUMPDEST SWAP2 SWAP1 POP JUMP JUMPDEST PUSH2 0x20A5 DUP1 PUSH3 0x1B5 PUSH0 CODECOPY PUSH0 RETURN INVALID PUSH1 0x80 PUSH1 0x40 MSTORE CALLVALUE DUP1 ISZERO PUSH2 0xF JUMPI PUSH0 DUP1 REVERT JUMPDEST POP PUSH1 0x4 CALLDATASIZE LT PUSH2 0xA7 JUMPI PUSH0 CALLDATALOAD PUSH1 0xE0 SHR DUP1 PUSH4 0x68E96328 GT PUSH2 0x6F JUMPI DUP1 PUSH4 0x68E96328 EQ PUSH2 0x17A JUMPI DUP1 PUSH4 0x94EF486B EQ PUSH2 0x184 JUMPI DUP1 PUSH4 0xA8C8ED29 EQ PUSH2 0x1B7 JUMPI DUP1 PUSH4 0xCFB51928 EQ PUSH2 0x1C1 JUMPI DUP1 PUSH4 0xE2B0D1E5 EQ PUSH2 0x1F1 JUMPI DUP1 PUSH4 0xF7775099 EQ PUSH2 0x20D JUMPI PUSH2 0xA7 JUMP JUMPDEST DUP1 PUSH4 0xA2559CC EQ PUSH2 0xAB JUMPI DUP1 PUSH4 0x2FCCBCC7 EQ PUSH2 0xDE JUMPI DUP1 PUSH4 0x3B2FB9AA EQ PUSH2 0xFC JUMPI DUP1 PUSH4 0x4389130D EQ PUSH2 0x118 JUMPI DUP1 PUSH4 0x5E56557F EQ PUSH2 0x149 JUMPI JUMPDEST PUSH0 DUP1 REVERT JUMPDEST PUSH2 0xC5 PUSH1 0x4 DUP1 CALLDATASIZE SUB DUP2 ADD SWAP1 PUSH2 0xC0 SWAP2 SWAP1 PUSH2 0x1511 JUMP JUMPDEST PUSH2 0x22B JUMP JUMPDEST PUSH1 0x40 MLOAD PUSH2 0xD5 SWAP5 SWAP4 SWAP3 SWAP2 SWAP1 PUSH2 0x1554 JUMP JUMPDEST PUSH1 0x40 MLOAD DUP1 SWAP2 SUB SWAP1 RETURN JUMPDEST PUSH2 0xE6 PUSH2 0x257 JUMP JUMPDEST PUSH1 0x40 MLOAD PUSH2 0xF3 SWAP2 SWAP1 PUSH2 0x167B JUMP JUMPDEST PUSH1 0x40 MLOAD DUP1 SWAP2 SUB SWAP1 RETURN JUMPDEST PUSH2 0x116 PUSH1 0x4 DUP1 CALLDATASIZE SUB DUP2 ADD SWAP1 PUSH2 0x111 SWAP2 SWAP1 PUSH2 0x16F8 JUMP JUMPDEST PUSH2 0x2C6 JUMP JUMPDEST STOP JUMPDEST PUSH2 0x132 PUSH1 0x4 DUP1 CALLDATASIZE SUB DUP2 ADD SWAP1 PUSH2 0x12D SWAP2 SWAP1 PUSH2 0x1736 JUMP JUMPDEST PUSH2 0x4D2 JUMP JUMPDEST PUSH1 0x40 MLOAD PUSH2 0x140 SWAP3 SWAP2 SWAP1 PUSH2 0x1761 JUMP JUMPDEST PUSH1 0x40 MLOAD DUP1 SWAP2 SUB SWAP1 RETURN JUMPDEST PUSH2 0x163 PUSH1 0x4 DUP1 CALLDATASIZE SUB DUP2 ADD SWAP1 PUSH2 0x15E SWAP2 SWAP1 PUSH2 0x1736 JUMP JUMPDEST PUSH2 0x501 JUMP JUMPDEST PUSH1 0x40 MLOAD PUSH2 0x171 SWAP3 SWAP2 SWAP1 PUSH2 0x1761 JUMP JUMPDEST PUSH1 0x40 MLOAD DUP1 SWAP2 SUB SWAP1 RETURN JUMPDEST PUSH2 0x182 PUSH2 0x530 JUMP JUMPDEST STOP JUMPDEST PUSH2 0x19E PUSH1 0x4 DUP1 CALLDATASIZE SUB DUP2 ADD SWAP1 PUSH2 0x199 SWAP2 SWAP1 PUSH2 0x1511 JUMP JUMPDEST PUSH2 0x6A5 JUMP JUMPDEST PUSH1 0x40 MLOAD PUSH2 0x1AE SWAP5 SWAP4 SWAP3 SWAP2 SWAP1 PUSH2 0x1554 JUMP JUMPDEST PUSH1 0x40 MLOAD DUP1 SWAP2 SUB SWAP1 RETURN JUMPDEST PUSH2 0x1BF PUSH2 0x7BB JUMP JUMPDEST STOP JUMPDEST PUSH2 0x1DB PUSH1 0x4 DUP1 CALLDATASIZE SUB DUP2 ADD SWAP1 PUSH2 0x1D6 SWAP2 SWAP1 PUSH2 0x18C4 JUMP JUMPDEST PUSH2 0x804 JUMP JUMPDEST PUSH1 0x40 MLOAD PUSH2 0x1E8 SWAP2 SWAP1 PUSH2 0x191A JUMP JUMPDEST PUSH1 0x40 MLOAD DUP1 SWAP2 SUB SWAP1 RETURN JUMPDEST PUSH2 0x20B PUSH1 0x4 DUP1 CALLDATASIZE SUB DUP2 ADD SWAP1 PUSH2 0x206 SWAP2 SWAP1 PUSH2 0x16F8 JUMP JUMPDEST PUSH2 0x82A JUMP JUMPDEST STOP JUMPDEST PUSH2 0x215 PUSH2 0xA09 JUMP JUMPDEST PUSH1 0x40 MLOAD PUSH2 0x222 SWAP2 SWAP1 PUSH2 0x167B JUMP JUMPDEST PUSH1 0x40 MLOAD DUP1 SWAP2 SUB SWAP1 RETURN JUMPDEST PUSH1 0xA PUSH1 0x20 MSTORE DUP1 PUSH0 MSTORE PUSH1 0x40 PUSH0 KECCAK256 PUSH0 SWAP2 POP SWAP1 POP DUP1 PUSH0 ADD SLOAD SWAP1 DUP1 PUSH1 0x1 ADD SLOAD SWAP1 DUP1 PUSH1 0x2 ADD SLOAD SWAP1 DUP1 PUSH1 0x3 ADD SLOAD SWAP1 POP DUP5 JUMP JUMPDEST PUSH1 0x60 PUSH1 0xB DUP1 SLOAD DUP1 PUSH1 0x20 MUL PUSH1 0x20 ADD PUSH1 0x40 MLOAD SWAP1 DUP2 ADD PUSH1 0x40 MSTORE DUP1 SWAP3 SWAP2 SWAP1 DUP2 DUP2 MSTORE PUSH1 0x20 ADD PUSH0 SWAP1 JUMPDEST DUP3 DUP3 LT ISZERO PUSH2 0x2BD JUMPI DUP4 DUP3 SWAP1 PUSH0 MSTORE PUSH1 0x20 PUSH0 KECCAK256 SWAP1 PUSH1 0x2 MUL ADD PUSH1 0x40 MLOAD DUP1 PUSH1 0x40 ADD PUSH1 0x40 MSTORE SWAP1 DUP2 PUSH0 DUP3 ADD SLOAD DUP2 MSTORE PUSH1 0x20 ADD PUSH1 0x1 DUP3 ADD SLOAD DUP2 MSTORE POP POP DUP2 MSTORE PUSH1 0x20 ADD SWAP1 PUSH1 0x1 ADD SWAP1 PUSH2 0x27A JUMP JUMPDEST POP POP POP POP SWAP1 POP SWAP1 JUMP JUMPDEST DUP2 PUSH1 0x5 PUSH0 DUP3 DUP2 MSTORE PUSH1 0x20 ADD SWAP1 DUP2 MSTORE PUSH1 0x20 ADD PUSH0 KECCAK256 PUSH0 SWAP1 SLOAD SWAP1 PUSH2 0x100 EXP SWAP1 DIV PUSH20 0xFFFFFFFFFFFFFFFFFFFFFFFFFFFFFFFFFFFFFFFF AND PUSH20 0xFFFFFFFFFFFFFFFFFFFFFFFFFFFFFFFFFFFFFFFF AND CALLER PUSH20 0xFFFFFFFFFFFFFFFFFFFFFFFFFFFFFFFFFFFFFFFF AND EQ PUSH2 0x365 JUMPI PUSH1 0x40 MLOAD PUSH32 0x8C379A000000000000000000000000000000000000000000000000000000000 DUP2 MSTORE PUSH1 0x4 ADD PUSH2 0x35C SWAP1 PUSH2 0x19B3 JUMP JUMPDEST PUSH1 0x40 MLOAD DUP1 SWAP2 SUB SWAP1 REVERT JUMPDEST PUSH1 0x5 PUSH0 DUP3 DUP2 MSTORE PUSH1 0x20 ADD SWAP1 DUP2 MSTORE PUSH1 0x20 ADD PUSH0 KECCAK256 PUSH0 PUSH2 0x100 EXP DUP2 SLOAD SWAP1 PUSH20 0xFFFFFFFFFFFFFFFFFFFFFFFFFFFFFFFFFFFFFFFF MUL NOT AND SWAP1 SSTORE DUP1 PUSH32 0x7CC135E0CEBB02C3480AE5D74D377283180A2601F8F644EDF7987B009316C63A PUSH1 0x40 MLOAD PUSH1 0x40 MLOAD DUP1 SWAP2 SUB SWAP1 LOG2 DUP2 DUP4 PUSH32 0x1CA8663227A7FE9919713A01D344AFBB434E234F35A3E540A6AD924F88771F38 PUSH1 0x40 MLOAD PUSH1 0x40 MLOAD DUP1 SWAP2 SUB SWAP1 LOG3 DUP2 PUSH1 0xA PUSH0 CALLER PUSH20 0xFFFFFFFFFFFFFFFFFFFFFFFFFFFFFFFFFFFFFFFF AND PUSH20 0xFFFFFFFFFFFFFFFFFFFFFFFFFFFFFFFFFFFFFFFF AND DUP2 MSTORE PUSH1 0x20 ADD SWAP1 DUP2 MSTORE PUSH1 0x20 ADD PUSH0 KECCAK256 PUSH1 0x1 ADD DUP2 SWAP1 SSTORE POP TIMESTAMP PUSH1 0xA PUSH0 CALLER PUSH20 0xFFFFFFFFFFFFFFFFFFFFFFFFFFFFFFFFFFFFFFFF AND PUSH20 0xFFFFFFFFFFFFFFFFFFFFFFFFFFFFFFFFFFFFFFFF AND DUP2 MSTORE PUSH1 0x20 ADD SWAP1 DUP2 MSTORE PUSH1 0x20 ADD PUSH0 KECCAK256 PUSH0 ADD DUP2 SWAP1 SSTORE POP PUSH1 0xB PUSH1 0x40 MLOAD DUP1 PUSH1 0x40 ADD PUSH1 0x40 MSTORE DUP1 TIMESTAMP DUP2 MSTORE PUSH1 0x20 ADD DUP5 DUP2 MSTORE POP SWAP1 DUP1 PUSH1 0x1 DUP2 SLOAD ADD DUP1 DUP3 SSTORE DUP1 SWAP2 POP POP PUSH1 0x1 SWAP1 SUB SWAP1 PUSH0 MSTORE PUSH1 0x20 PUSH0 KECCAK256 SWAP1 PUSH1 0x2 MUL ADD PUSH0 SWAP1 SWAP2 SWAP1 SWAP2 SWAP1 SWAP2 POP PUSH0 DUP3 ADD MLOAD DUP2 PUSH0 ADD SSTORE PUSH1 0x20 DUP3 ADD MLOAD DUP2 PUSH1 0x1 ADD SSTORE POP POP POP POP POP JUMP JUMPDEST PUSH1 0xB DUP2 DUP2 SLOAD DUP2 LT PUSH2 0x4E1 JUMPI PUSH0 DUP1 REVERT JUMPDEST SWAP1 PUSH0 MSTORE PUSH1 0x20 PUSH0 KECCAK256 SWAP1 PUSH1 0x2 MUL ADD PUSH0 SWAP2 POP SWAP1 POP DUP1 PUSH0 ADD SLOAD SWAP1 DUP1 PUSH1 0x1 ADD SLOAD SWAP1 POP DUP3 JUMP JUMPDEST PUSH1 0xC DUP2 DUP2 SLOAD DUP2 LT PUSH2 0x510 JUMPI PUSH0 DUP1 REVERT JUMPDEST SWAP1 PUSH0 MSTORE PUSH1 0x20 PUSH0 KECCAK256 SWAP1 PUSH1 0x2 MUL ADD PUSH0 SWAP2 POP SWAP1 POP DUP1 PUSH0 ADD SLOAD SWAP1 DUP1 PUSH1 0x1 ADD SLOAD SWAP1 POP DUP3 JUMP JUMPDEST PUSH0 PUSH2 0x545 PUSH1 0x7 SLOAD ADDRESS PUSH4 0x3B2FB9AA PUSH1 0xE0 SHL PUSH2 0xA78 JUMP JUMPDEST SWAP1 POP PUSH2 0x5A9 PUSH1 0x40 MLOAD DUP1 PUSH1 0x40 ADD PUSH1 0x40 MSTORE DUP1 PUSH1 0x3 DUP2 MSTORE PUSH1 0x20 ADD PUSH32 0x6765740000000000000000000000000000000000000000000000000000000000 DUP2 MSTORE POP PUSH1 0x40 MLOAD DUP1 PUSH1 0x80 ADD PUSH1 0x40 MSTORE DUP1 PUSH1 0x46 DUP2 MSTORE PUSH1 0x20 ADD PUSH2 0x202A PUSH1 0x46 SWAP2 CODECOPY DUP4 PUSH2 0xAA9 SWAP1 SWAP3 SWAP2 SWAP1 PUSH4 0xFFFFFFFF AND JUMP JUMPDEST PUSH2 0x628 PUSH1 0x40 MLOAD DUP1 PUSH1 0x40 ADD PUSH1 0x40 MSTORE DUP1 PUSH1 0x4 DUP2 MSTORE PUSH1 0x20 ADD PUSH32 0x7061746800000000000000000000000000000000000000000000000000000000 DUP2 MSTORE POP PUSH1 0x40 MLOAD DUP1 PUSH1 0x40 ADD PUSH1 0x40 MSTORE DUP1 PUSH1 0x3 DUP2 MSTORE PUSH1 0x20 ADD PUSH32 0x5553440000000000000000000000000000000000000000000000000000000000 DUP2 MSTORE POP DUP4 PUSH2 0xAA9 SWAP1 SWAP3 SWAP2 SWAP1 PUSH4 0xFFFFFFFF AND JUMP JUMPDEST PUSH2 0x673 PUSH1 0x40 MLOAD DUP1 PUSH1 0x40 ADD PUSH1 0x40 MSTORE DUP1 PUSH1 0x5 DUP2 MSTORE PUSH1 0x20 ADD PUSH32 0x74696D6573000000000000000000000000000000000000000000000000000000 DUP2 MSTORE POP PUSH1 0x64 DUP4 PUSH2 0xADC SWAP1 SWAP3 SWAP2 SWAP1 PUSH4 0xFFFFFFFF AND JUMP JUMPDEST PUSH2 0x6A1 PUSH1 0x6 PUSH0 SWAP1 SLOAD SWAP1 PUSH2 0x100 EXP SWAP1 DIV PUSH20 0xFFFFFFFFFFFFFFFFFFFFFFFFFFFFFFFFFFFFFFFF AND DUP3 PUSH1 0x9 SLOAD PUSH2 0xB0F JUMP JUMPDEST POP POP JUMP JUMPDEST PUSH0 DUP1 PUSH0 DUP1 PUSH1 0xA PUSH0 DUP7 PUSH20 0xFFFFFFFFFFFFFFFFFFFFFFFFFFFFFFFFFFFFFFFF AND PUSH20 0xFFFFFFFFFFFFFFFFFFFFFFFFFFFFFFFFFFFFFFFF AND DUP2 MSTORE PUSH1 0x20 ADD SWAP1 DUP2 MSTORE PUSH1 0x20 ADD PUSH0 KECCAK256 PUSH0 ADD SLOAD PUSH1 0xA PUSH0 DUP8 PUSH20 0xFFFFFFFFFFFFFFFFFFFFFFFFFFFFFFFFFFFFFFFF AND PUSH20 0xFFFFFFFFFFFFFFFFFFFFFFFFFFFFFFFFFFFFFFFF AND DUP2 MSTORE PUSH1 0x20 ADD SWAP1 DUP2 MSTORE PUSH1 0x20 ADD PUSH0 KECCAK256 PUSH1 0x1 ADD SLOAD PUSH1 0xA PUSH0 DUP9 PUSH20 0xFFFFFFFFFFFFFFFFFFFFFFFFFFFFFFFFFFFFFFFF AND PUSH20 0xFFFFFFFFFFFFFFFFFFFFFFFFFFFFFFFFFFFFFFFF AND DUP2 MSTORE PUSH1 0x20 ADD SWAP1 DUP2 MSTORE PUSH1 0x20 ADD PUSH0 KECCAK256 PUSH1 0x2 ADD SLOAD PUSH1 0xA PUSH0 DUP10 PUSH20 0xFFFFFFFFFFFFFFFFFFFFFFFFFFFFFFFFFFFFFFFF AND PUSH20 0xFFFFFFFFFFFFFFFFFFFFFFFFFFFFFFFFFFFFFFFF AND DUP2 MSTORE PUSH1 0x20 ADD SWAP1 DUP2 MSTORE PUSH1 0x20 ADD PUSH0 KECCAK256 PUSH1 0x3 ADD SLOAD SWAP4 POP SWAP4 POP SWAP4 POP SWAP4 POP SWAP2 SWAP4 POP SWAP2 SWAP4 JUMP JUMPDEST PUSH0 PUSH2 0x7D0 PUSH1 0x8 SLOAD ADDRESS PUSH4 0xE2B0D1E5 PUSH1 0xE0 SHL PUSH2 0xA78 JUMP JUMPDEST SWAP1 POP PUSH2 0x800 PUSH1 0x6 PUSH0 SWAP1 SLOAD SWAP1 PUSH2 0x100 EXP SWAP1 DIV PUSH20 0xFFFFFFFFFFFFFFFFFFFFFFFFFFFFFFFFFFFFFFFF AND DUP3 PUSH1 0x9 SLOAD PUSH2 0xB0F JUMP JUMPDEST POP POP JUMP JUMPDEST PUSH0 DUP1 DUP3 SWAP1 POP PUSH0 DUP2 MLOAD SUB PUSH2 0x81C JUMPI PUSH0 DUP1 SHL SWAP2 POP POP PUSH2 0x825 JUMP JUMPDEST PUSH1 0x20 DUP4 ADD MLOAD SWAP2 POP POP JUMPDEST SWAP2 SWAP1 POP JUMP JUMPDEST DUP2 PUSH1 0x5 PUSH0 DUP3 DUP2 MSTORE PUSH1 0x20 ADD SWAP1 DUP2 MSTORE PUSH1 0x20 ADD PUSH0 KECCAK256 PUSH0 SWAP1 SLOAD SWAP1 PUSH2 0x100 EXP SWAP1 DIV PUSH20 0xFFFFFFFFFFFFFFFFFFFFFFFFFFFFFFFFFFFFFFFF AND PUSH20 0xFFFFFFFFFFFFFFFFFFFFFFFFFFFFFFFFFFFFFFFF AND CALLER PUSH20 0xFFFFFFFFFFFFFFFFFFFFFFFFFFFFFFFFFFFFFFFF AND EQ PUSH2 0x8C9 JUMPI PUSH1 0x40 MLOAD PUSH32 0x8C379A000000000000000000000000000000000000000000000000000000000 DUP2 MSTORE PUSH1 0x4 ADD PUSH2 0x8C0 SWAP1 PUSH2 0x19B3 JUMP JUMPDEST PUSH1 0x40 MLOAD DUP1 SWAP2 SUB SWAP1 REVERT JUMPDEST PUSH1 0x5 PUSH0 DUP3 DUP2 MSTORE PUSH1 0x20 ADD SWAP1 DUP2 MSTORE PUSH1 0x20 ADD PUSH0 KECCAK256 PUSH0 PUSH2 0x100 EXP DUP2 SLOAD SWAP1 PUSH20 0xFFFFFFFFFFFFFFFFFFFFFFFFFFFFFFFFFFFFFFFF MUL NOT AND SWAP1 SSTORE DUP1 PUSH32 0x7CC135E0CEBB02C3480AE5D74D377283180A2601F8F644EDF7987B009316C63A PUSH1 0x40 MLOAD PUSH1 0x40 MLOAD DUP1 SWAP2 SUB SWAP1 LOG2 DUP2 PUSH1 0xA PUSH0 CALLER PUSH20 0xFFFFFFFFFFFFFFFFFFFFFFFFFFFFFFFFFFFFFFFF AND PUSH20 0xFFFFFFFFFFFFFFFFFFFFFFFFFFFFFFFFFFFFFFFF AND DUP2 MSTORE PUSH1 0x20 ADD SWAP1 DUP2 MSTORE PUSH1 0x20 ADD PUSH0 KECCAK256 PUSH1 0x3 ADD DUP2 SWAP1 SSTORE POP TIMESTAMP PUSH1 0xA PUSH0 CALLER PUSH20 0xFFFFFFFFFFFFFFFFFFFFFFFFFFFFFFFFFFFFFFFF AND PUSH20 0xFFFFFFFFFFFFFFFFFFFFFFFFFFFFFFFFFFFFFFFF AND DUP2 MSTORE PUSH1 0x20 ADD SWAP1 DUP2 MSTORE PUSH1 0x20 ADD PUSH0 KECCAK256 PUSH1 0x2 ADD DUP2 SWAP1 SSTORE POP PUSH1 0xC PUSH1 0x40 MLOAD DUP1 PUSH1 0x40 ADD PUSH1 0x40 MSTORE DUP1 TIMESTAMP DUP2 MSTORE PUSH1 0x20 ADD DUP5 DUP2 MSTORE POP SWAP1 DUP1 PUSH1 0x1 DUP2 SLOAD ADD DUP1 DUP3 SSTORE DUP1 SWAP2 POP POP PUSH1 0x1 SWAP1 SUB SWAP1 PUSH0 MSTORE PUSH1 0x20 PUSH0 KECCAK256 SWAP1 PUSH1 0x2 MUL ADD PUSH0 SWAP1 SWAP2 SWAP1 SWAP2 SWAP1 SWAP2 POP PUSH0 DUP3 ADD MLOAD DUP2 PUSH0 ADD SSTORE PUSH1 0x20 DUP3 ADD MLOAD DUP2 PUSH1 0x1 ADD SSTORE POP POP POP POP POP JUMP JUMPDEST PUSH1 0x60 PUSH1 0xC DUP1 SLOAD DUP1 PUSH1 0x20 MUL PUSH1 0x20 ADD PUSH1 0x40 MLOAD SWAP1 DUP2 ADD PUSH1 0x40 MSTORE DUP1 SWAP3 SWAP2 SWAP1 DUP2 DUP2 MSTORE PUSH1 0x20 ADD PUSH0 SWAP1 JUMPDEST DUP3 DUP3 LT ISZERO PUSH2 0xA6F JUMPI DUP4 DUP3 SWAP1 PUSH0 MSTORE PUSH1 0x20 PUSH0 KECCAK256 SWAP1 PUSH1 0x2 MUL ADD PUSH1 0x40 MLOAD DUP1 PUSH1 0x40 ADD PUSH1 0x40 MSTORE SWAP1 DUP2 PUSH0 DUP3 ADD SLOAD DUP2 MSTORE PUSH1 0x20 ADD PUSH1 0x1 DUP3 ADD SLOAD DUP2 MSTORE POP POP DUP2 MSTORE PUSH1 0x20 ADD SWAP1 PUSH1 0x1 ADD SWAP1 PUSH2 0xA2C JUMP JUMPDEST POP POP POP POP SWAP1 POP SWAP1 JUMP JUMPDEST PUSH2 0xA80 PUSH2 0x1424 JUMP JUMPDEST PUSH2 0xA88 PUSH2 0x1424 JUMP JUMPDEST PUSH2 0xA9F DUP6 DUP6 DUP6 DUP5 PUSH2 0xBD6 SWAP1 SWAP4 SWAP3 SWAP2 SWAP1 PUSH4 0xFFFFFFFF AND JUMP JUMPDEST SWAP2 POP POP SWAP4 SWAP3 POP POP POP JUMP JUMPDEST PUSH2 0xAC0 DUP3 DUP5 PUSH1 0x80 ADD MLOAD PUSH2 0xC85 SWAP1 SWAP2 SWAP1 PUSH4 0xFFFFFFFF AND JUMP JUMPDEST PUSH2 0xAD7 DUP2 DUP5 PUSH1 0x80 ADD MLOAD PUSH2 0xC85 SWAP1 SWAP2 SWAP1 PUSH4 0xFFFFFFFF AND JUMP JUMPDEST POP POP POP JUMP JUMPDEST PUSH2 0xAF3 DUP3 DUP5 PUSH1 0x80 ADD MLOAD PUSH2 0xC85 SWAP1 SWAP2 SWAP1 PUSH4 0xFFFFFFFF AND JUMP JUMPDEST PUSH2 0xB0A DUP2 DUP5 PUSH1 0x80 ADD MLOAD PUSH2 0xCAA SWAP1 SWAP2 SWAP1 PUSH4 0xFFFFFFFF AND JUMP JUMPDEST POP POP POP JUMP JUMPDEST PUSH0 DUP1 PUSH1 0x4 SLOAD SWAP1 POP PUSH1 0x1 DUP2 PUSH2 0xB23 SWAP2 SWAP1 PUSH2 0x19FE JUMP JUMPDEST PUSH1 0x4 DUP2 SWAP1 SSTORE POP PUSH0 PUSH4 0x40429946 PUSH1 0xE0 SHL PUSH0 DUP1 DUP8 PUSH0 ADD MLOAD ADDRESS DUP10 PUSH1 0x40 ADD MLOAD DUP8 PUSH1 0x1 DUP13 PUSH1 0x80 ADD MLOAD PUSH0 ADD MLOAD PUSH1 0x40 MLOAD PUSH1 0x24 ADD PUSH2 0xB60 SWAP9 SWAP8 SWAP7 SWAP6 SWAP5 SWAP4 SWAP3 SWAP2 SWAP1 PUSH2 0x1AF4 JUMP JUMPDEST PUSH1 0x40 MLOAD PUSH1 0x20 DUP2 DUP4 SUB SUB DUP2 MSTORE SWAP1 PUSH1 0x40 MSTORE SWAP1 PUSH28 0xFFFFFFFFFFFFFFFFFFFFFFFFFFFFFFFFFFFFFFFFFFFFFFFFFFFFFFFF NOT AND PUSH1 0x20 DUP3 ADD DUP1 MLOAD PUSH28 0xFFFFFFFFFFFFFFFFFFFFFFFFFFFFFFFFFFFFFFFFFFFFFFFFFFFFFFFF DUP4 DUP2 DUP4 AND OR DUP4 MSTORE POP POP POP POP SWAP1 POP PUSH2 0xBCB DUP7 DUP4 DUP7 DUP5 PUSH2 0xD55 JUMP JUMPDEST SWAP3 POP POP POP SWAP4 SWAP3 POP POP POP JUMP JUMPDEST PUSH2 0xBDE PUSH2 0x1424 JUMP JUMPDEST PUSH2 0xBEE DUP6 PUSH1 0x80 ADD MLOAD PUSH2 0x100 PUSH2 0xEE2 JUMP JUMPDEST POP DUP4 DUP6 PUSH0 ADD DUP2 DUP2 MSTORE POP POP DUP3 DUP6 PUSH1 0x20 ADD SWAP1 PUSH20 0xFFFFFFFFFFFFFFFFFFFFFFFFFFFFFFFFFFFFFFFF AND SWAP1 DUP2 PUSH20 0xFFFFFFFFFFFFFFFFFFFFFFFFFFFFFFFFFFFFFFFF AND DUP2 MSTORE POP POP DUP2 DUP6 PUSH1 0x40 ADD SWAP1 PUSH28 0xFFFFFFFFFFFFFFFFFFFFFFFFFFFFFFFFFFFFFFFFFFFFFFFFFFFFFFFF NOT AND SWAP1 DUP2 PUSH28 0xFFFFFFFFFFFFFFFFFFFFFFFFFFFFFFFFFFFFFFFFFFFFFFFFFFFFFFFF NOT AND DUP2 MSTORE POP POP DUP5 SWAP1 POP SWAP5 SWAP4 POP POP POP POP JUMP JUMPDEST PUSH2 0xC92 DUP3 PUSH1 0x3 DUP4 MLOAD PUSH2 0xF4A JUMP JUMPDEST PUSH2 0xCA5 DUP2 DUP4 PUSH2 0x10CF SWAP1 SWAP2 SWAP1 PUSH4 0xFFFFFFFF AND JUMP JUMPDEST POP POP POP JUMP JUMPDEST PUSH32 0xFFFFFFFFFFFFFFFFFFFFFFFFFFFFFFFFFFFFFFFFFFFFFFFF0000000000000000 DUP2 SLT ISZERO PUSH2 0xCE1 JUMPI PUSH2 0xCDC DUP3 DUP3 PUSH2 0x10F0 JUMP JUMPDEST PUSH2 0xD51 JUMP JUMPDEST PUSH8 0xFFFFFFFFFFFFFFFF DUP2 SGT ISZERO PUSH2 0xD00 JUMPI PUSH2 0xCFB DUP3 DUP3 PUSH2 0x1167 JUMP JUMPDEST PUSH2 0xD50 JUMP JUMPDEST PUSH0 DUP2 SLT PUSH2 0xD17 JUMPI PUSH2 0xD12 DUP3 PUSH0 DUP4 PUSH2 0xF4A JUMP JUMPDEST PUSH2 0xD4F JUMP JUMPDEST PUSH2 0xD4E DUP3 PUSH1 0x1 DUP4 PUSH32 0xFFFFFFFFFFFFFFFFFFFFFFFFFFFFFFFFFFFFFFFFFFFFFFFFFFFFFFFFFFFFFFFF PUSH2 0xD49 SWAP2 SWAP1 PUSH2 0x1B80 JUMP JUMPDEST PUSH2 0xF4A JUMP JUMPDEST JUMPDEST JUMPDEST JUMPDEST POP POP JUMP JUMPDEST PUSH0 ADDRESS DUP5 PUSH1 0x40 MLOAD PUSH1 0x20 ADD PUSH2 0xD69 SWAP3 SWAP2 SWAP1 PUSH2 0x1C71 JUMP JUMPDEST PUSH1 0x40 MLOAD PUSH1 0x20 DUP2 DUP4 SUB SUB DUP2 MSTORE SWAP1 PUSH1 0x40 MSTORE DUP1 MLOAD SWAP1 PUSH1 0x20 ADD KECCAK256 SWAP1 POP DUP5 PUSH1 0x5 PUSH0 DUP4 DUP2 MSTORE PUSH1 0x20 ADD SWAP1 DUP2 MSTORE PUSH1 0x20 ADD PUSH0 KECCAK256 PUSH0 PUSH2 0x100 EXP DUP2 SLOAD DUP2 PUSH20 0xFFFFFFFFFFFFFFFFFFFFFFFFFFFFFFFFFFFFFFFF MUL NOT AND SWAP1 DUP4 PUSH20 0xFFFFFFFFFFFFFFFFFFFFFFFFFFFFFFFFFFFFFFFF AND MUL OR SWAP1 SSTORE POP DUP1 PUSH32 0xB5E6E01E79F91267DC17B4E6314D5D4D03593D2CEEE0FBB452B750BD70EA5AF9 PUSH1 0x40 MLOAD PUSH1 0x40 MLOAD DUP1 SWAP2 SUB SWAP1 LOG2 PUSH1 0x2 PUSH0 SWAP1 SLOAD SWAP1 PUSH2 0x100 EXP SWAP1 DIV PUSH20 0xFFFFFFFFFFFFFFFFFFFFFFFFFFFFFFFFFFFFFFFF AND PUSH20 0xFFFFFFFFFFFFFFFFFFFFFFFFFFFFFFFFFFFFFFFF AND PUSH4 0x4000AEA0 DUP7 DUP6 DUP6 PUSH1 0x40 MLOAD DUP5 PUSH4 0xFFFFFFFF AND PUSH1 0xE0 SHL DUP2 MSTORE PUSH1 0x4 ADD PUSH2 0xE5B SWAP4 SWAP3 SWAP2 SWAP1 PUSH2 0x1C9C JUMP JUMPDEST PUSH1 0x20 PUSH1 0x40 MLOAD DUP1 DUP4 SUB DUP2 PUSH0 DUP8 GAS CALL ISZERO DUP1 ISZERO PUSH2 0xE77 JUMPI RETURNDATASIZE PUSH0 DUP1 RETURNDATACOPY RETURNDATASIZE PUSH0 REVERT JUMPDEST POP POP POP POP PUSH1 0x40 MLOAD RETURNDATASIZE PUSH1 0x1F NOT PUSH1 0x1F DUP3 ADD AND DUP3 ADD DUP1 PUSH1 0x40 MSTORE POP DUP2 ADD SWAP1 PUSH2 0xE9B SWAP2 SWAP1 PUSH2 0x1D0D JUMP JUMPDEST PUSH2 0xEDA JUMPI PUSH1 0x40 MLOAD PUSH32 0x8C379A000000000000000000000000000000000000000000000000000000000 DUP2 MSTORE PUSH1 0x4 ADD PUSH2 0xED1 SWAP1 PUSH2 0x1DA8 JUMP JUMPDEST PUSH1 0x40 MLOAD DUP1 SWAP2 SUB SWAP1 REVERT JUMPDEST SWAP5 SWAP4 POP POP POP POP JUMP JUMPDEST PUSH2 0xEEA PUSH2 0x148D JUMP JUMPDEST PUSH0 PUSH1 0x20 DUP4 PUSH2 0xEF8 SWAP2 SWAP1 PUSH2 0x1DF3 JUMP JUMPDEST EQ PUSH2 0xF24 JUMPI PUSH1 0x20 DUP3 PUSH2 0xF0A SWAP2 SWAP1 PUSH2 0x1DF3 JUMP JUMPDEST PUSH1 0x20 PUSH2 0xF16 SWAP2 SWAP1 PUSH2 0x1E23 JUMP JUMPDEST DUP3 PUSH2 0xF21 SWAP2 SWAP1 PUSH2 0x19FE JUMP JUMPDEST SWAP2 POP JUMPDEST DUP2 DUP4 PUSH1 0x20 ADD DUP2 DUP2 MSTORE POP POP PUSH1 0x40 MLOAD DUP1 DUP5 MSTORE PUSH0 DUP2 MSTORE DUP3 DUP2 ADD PUSH1 0x20 ADD PUSH1 0x40 MSTORE POP DUP3 SWAP1 POP SWAP3 SWAP2 POP POP JUMP JUMPDEST PUSH1 0x17 DUP2 PUSH8 0xFFFFFFFFFFFFFFFF AND GT PUSH2 0xF81 JUMPI PUSH2 0xF7B DUP2 PUSH1 0x5 DUP5 PUSH1 0xFF AND SWAP1 SHL PUSH1 0xFF AND OR DUP5 PUSH2 0x11B3 SWAP1 SWAP2 SWAP1 PUSH4 0xFFFFFFFF AND JUMP JUMPDEST POP PUSH2 0x10CA JUMP JUMPDEST PUSH1 0xFF DUP2 PUSH8 0xFFFFFFFFFFFFFFFF AND GT PUSH2 0xFD7 JUMPI PUSH2 0xFB0 PUSH1 0x18 PUSH1 0x5 DUP5 PUSH1 0xFF AND SWAP1 SHL OR DUP5 PUSH2 0x11B3 SWAP1 SWAP2 SWAP1 PUSH4 0xFFFFFFFF AND JUMP JUMPDEST POP PUSH2 0xFD1 DUP2 PUSH8 0xFFFFFFFFFFFFFFFF AND PUSH1 0x1 DUP6 PUSH2 0x11D2 SWAP1 SWAP3 SWAP2 SWAP1 PUSH4 0xFFFFFFFF AND JUMP JUMPDEST POP PUSH2 0x10C9 JUMP JUMPDEST PUSH2 0xFFFF DUP2 PUSH8 0xFFFFFFFFFFFFFFFF AND GT PUSH2 0x102E JUMPI PUSH2 0x1007 PUSH1 0x19 PUSH1 0x5 DUP5 PUSH1 0xFF AND SWAP1 SHL OR DUP5 PUSH2 0x11B3 SWAP1 SWAP2 SWAP1 PUSH4 0xFFFFFFFF AND JUMP JUMPDEST POP PUSH2 0x1028 DUP2 PUSH8 0xFFFFFFFFFFFFFFFF AND PUSH1 0x2 DUP6 PUSH2 0x11D2 SWAP1 SWAP3 SWAP2 SWAP1 PUSH4 0xFFFFFFFF AND JUMP JUMPDEST POP PUSH2 0x10C8 JUMP JUMPDEST PUSH4 0xFFFFFFFF DUP2 PUSH8 0xFFFFFFFFFFFFFFFF AND GT PUSH2 0x1087 JUMPI PUSH2 0x1060 PUSH1 0x1A PUSH1 0x5 DUP5 PUSH1 0xFF AND SWAP1 SHL OR DUP5 PUSH2 0x11B3 SWAP1 SWAP2 SWAP1 PUSH4 0xFFFFFFFF AND JUMP JUMPDEST POP PUSH2 0x1081 DUP2 PUSH8 0xFFFFFFFFFFFFFFFF AND PUSH1 0x4 DUP6 PUSH2 0x11D2 SWAP1 SWAP3 SWAP2 SWAP1 PUSH4 0xFFFFFFFF AND JUMP JUMPDEST POP PUSH2 0x10C7 JUMP JUMPDEST PUSH2 0x10A4 PUSH1 0x1B PUSH1 0x5 DUP5 PUSH1 0xFF AND SWAP1 SHL OR DUP5 PUSH2 0x11B3 SWAP1 SWAP2 SWAP1 PUSH4 0xFFFFFFFF AND JUMP JUMPDEST POP PUSH2 0x10C5 DUP2 PUSH8 0xFFFFFFFFFFFFFFFF AND PUSH1 0x8 DUP6 PUSH2 0x11D2 SWAP1 SWAP3 SWAP2 SWAP1 PUSH4 0xFFFFFFFF AND JUMP JUMPDEST POP JUMPDEST JUMPDEST JUMPDEST JUMPDEST POP POP POP JUMP JUMPDEST PUSH2 0x10D7 PUSH2 0x148D JUMP JUMPDEST PUSH2 0x10E8 DUP4 DUP5 PUSH0 ADD MLOAD MLOAD DUP5 DUP6 MLOAD PUSH2 0x11F3 JUMP JUMPDEST SWAP1 POP SWAP3 SWAP2 POP POP JUMP JUMPDEST PUSH2 0x110E PUSH1 0x3 PUSH1 0x5 PUSH1 0x6 PUSH1 0xFF AND SWAP1 SHL OR DUP4 PUSH2 0x11B3 SWAP1 SWAP2 SWAP1 PUSH4 0xFFFFFFFF AND JUMP JUMPDEST POP PUSH2 0x1163 DUP3 DUP3 PUSH32 0xFFFFFFFFFFFFFFFFFFFFFFFFFFFFFFFFFFFFFFFFFFFFFFFFFFFFFFFFFFFFFFFF PUSH2 0x113F SWAP2 SWAP1 PUSH2 0x1B80 JUMP JUMPDEST PUSH1 0x40 MLOAD PUSH1 0x20 ADD PUSH2 0x114F SWAP2 SWAP1 PUSH2 0x1E56 JUMP JUMPDEST PUSH1 0x40 MLOAD PUSH1 0x20 DUP2 DUP4 SUB SUB DUP2 MSTORE SWAP1 PUSH1 0x40 MSTORE PUSH2 0x12DF JUMP JUMPDEST POP POP JUMP JUMPDEST PUSH2 0x1185 PUSH1 0x2 PUSH1 0x5 PUSH1 0x6 PUSH1 0xFF AND SWAP1 SHL OR DUP4 PUSH2 0x11B3 SWAP1 SWAP2 SWAP1 PUSH4 0xFFFFFFFF AND JUMP JUMPDEST POP PUSH2 0x11AF DUP3 DUP3 PUSH1 0x40 MLOAD PUSH1 0x20 ADD PUSH2 0x119B SWAP2 SWAP1 PUSH2 0x1E56 JUMP JUMPDEST PUSH1 0x40 MLOAD PUSH1 0x20 DUP2 DUP4 SUB SUB DUP2 MSTORE SWAP1 PUSH1 0x40 MSTORE PUSH2 0x12DF JUMP JUMPDEST POP POP JUMP JUMPDEST PUSH2 0x11BB PUSH2 0x148D JUMP JUMPDEST PUSH2 0x11CA DUP4 DUP5 PUSH0 ADD MLOAD MLOAD DUP5 PUSH2 0x1304 JUMP JUMPDEST SWAP1 POP SWAP3 SWAP2 POP POP JUMP JUMPDEST PUSH2 0x11DA PUSH2 0x148D JUMP JUMPDEST PUSH2 0x11EA DUP5 DUP6 PUSH0 ADD MLOAD MLOAD DUP6 DUP6 PUSH2 0x135A JUMP JUMPDEST SWAP1 POP SWAP4 SWAP3 POP POP POP JUMP JUMPDEST PUSH2 0x11FB PUSH2 0x148D JUMP JUMPDEST DUP3 MLOAD DUP3 GT ISZERO PUSH2 0x1208 JUMPI PUSH0 DUP1 REVERT JUMPDEST DUP5 PUSH1 0x20 ADD MLOAD DUP3 DUP6 PUSH2 0x1219 SWAP2 SWAP1 PUSH2 0x19FE JUMP JUMPDEST GT ISZERO PUSH2 0x124E JUMPI PUSH2 0x124D DUP6 PUSH1 0x2 PUSH2 0x123E DUP9 PUSH1 0x20 ADD MLOAD DUP9 DUP8 PUSH2 0x1239 SWAP2 SWAP1 PUSH2 0x19FE JUMP JUMPDEST PUSH2 0x13E7 JUMP JUMPDEST PUSH2 0x1248 SWAP2 SWAP1 PUSH2 0x1E6F JUMP JUMPDEST PUSH2 0x1402 JUMP JUMPDEST JUMPDEST PUSH0 DUP1 DUP7 MLOAD DUP1 MLOAD DUP8 PUSH1 0x20 DUP4 ADD ADD SWAP4 POP DUP1 DUP9 DUP8 ADD GT ISZERO PUSH2 0x126C JUMPI DUP8 DUP7 ADD DUP3 MSTORE JUMPDEST PUSH1 0x20 DUP8 ADD SWAP3 POP POP POP JUMPDEST PUSH1 0x20 DUP5 LT PUSH2 0x12B3 JUMPI DUP1 MLOAD DUP3 MSTORE PUSH1 0x20 DUP3 PUSH2 0x128E SWAP2 SWAP1 PUSH2 0x19FE JUMP JUMPDEST SWAP2 POP PUSH1 0x20 DUP2 PUSH2 0x129D SWAP2 SWAP1 PUSH2 0x19FE JUMP JUMPDEST SWAP1 POP PUSH1 0x20 DUP5 PUSH2 0x12AC SWAP2 SWAP1 PUSH2 0x1E23 JUMP JUMPDEST SWAP4 POP PUSH2 0x1275 JUMP JUMPDEST PUSH0 PUSH1 0x1 DUP6 PUSH1 0x20 SUB PUSH2 0x100 EXP SUB SWAP1 POP DUP1 NOT DUP3 MLOAD AND DUP2 DUP5 MLOAD AND DUP2 DUP2 OR DUP6 MSTORE POP POP POP DUP7 SWAP3 POP POP POP SWAP5 SWAP4 POP POP POP POP JUMP JUMPDEST PUSH2 0x12EC DUP3 PUSH1 0x2 DUP4 MLOAD PUSH2 0xF4A JUMP JUMPDEST PUSH2 0x12FF DUP2 DUP4 PUSH2 0x10CF SWAP1 SWAP2 SWAP1 PUSH4 0xFFFFFFFF AND JUMP JUMPDEST POP POP POP JUMP JUMPDEST PUSH2 0x130C PUSH2 0x148D JUMP JUMPDEST DUP4 PUSH1 0x20 ADD MLOAD DUP4 LT PUSH2 0x1332 JUMPI PUSH2 0x1331 DUP5 PUSH1 0x2 DUP7 PUSH1 0x20 ADD MLOAD PUSH2 0x132C SWAP2 SWAP1 PUSH2 0x1E6F JUMP JUMPDEST PUSH2 0x1402 JUMP JUMPDEST JUMPDEST DUP4 MLOAD DUP1 MLOAD PUSH1 0x20 DUP6 DUP4 ADD ADD DUP5 DUP2 MSTORE8 DUP2 DUP7 SUB PUSH2 0x134D JUMPI PUSH1 0x1 DUP3 ADD DUP4 MSTORE JUMPDEST POP POP POP DUP4 SWAP1 POP SWAP4 SWAP3 POP POP POP JUMP JUMPDEST PUSH2 0x1362 PUSH2 0x148D JUMP JUMPDEST DUP5 PUSH1 0x20 ADD MLOAD DUP5 DUP4 PUSH2 0x1373 SWAP2 SWAP1 PUSH2 0x19FE JUMP JUMPDEST GT ISZERO PUSH2 0x139B JUMPI PUSH2 0x139A DUP6 PUSH1 0x2 DUP7 DUP6 PUSH2 0x138B SWAP2 SWAP1 PUSH2 0x19FE JUMP JUMPDEST PUSH2 0x1395 SWAP2 SWAP1 PUSH2 0x1E6F JUMP JUMPDEST PUSH2 0x1402 JUMP JUMPDEST JUMPDEST PUSH0 PUSH1 0x1 DUP4 PUSH2 0x100 PUSH2 0x13AC SWAP2 SWAP1 PUSH2 0x1FDF JUMP JUMPDEST PUSH2 0x13B6 SWAP2 SWAP1 PUSH2 0x1E23 JUMP JUMPDEST SWAP1 POP DUP6 MLOAD DUP4 DUP7 DUP3 ADD ADD DUP6 DUP4 NOT DUP3 MLOAD AND OR DUP2 MSTORE DUP2 MLOAD DUP6 DUP9 ADD GT ISZERO PUSH2 0x13D9 JUMPI DUP5 DUP8 ADD DUP3 MSTORE JUMPDEST POP POP DUP6 SWAP2 POP POP SWAP5 SWAP4 POP POP POP POP JUMP JUMPDEST PUSH0 DUP2 DUP4 GT ISZERO PUSH2 0x13F8 JUMPI DUP3 SWAP1 POP PUSH2 0x13FC JUMP JUMPDEST DUP2 SWAP1 POP JUMPDEST SWAP3 SWAP2 POP POP JUMP JUMPDEST PUSH0 DUP3 PUSH0 ADD MLOAD SWAP1 POP PUSH2 0x1413 DUP4 DUP4 PUSH2 0xEE2 JUMP JUMPDEST POP PUSH2 0x141E DUP4 DUP3 PUSH2 0x10CF JUMP JUMPDEST POP POP POP POP JUMP JUMPDEST PUSH1 0x40 MLOAD DUP1 PUSH1 0xA0 ADD PUSH1 0x40 MSTORE DUP1 PUSH0 DUP1 NOT AND DUP2 MSTORE PUSH1 0x20 ADD PUSH0 PUSH20 0xFFFFFFFFFFFFFFFFFFFFFFFFFFFFFFFFFFFFFFFF AND DUP2 MSTORE PUSH1 0x20 ADD PUSH0 PUSH28 0xFFFFFFFFFFFFFFFFFFFFFFFFFFFFFFFFFFFFFFFFFFFFFFFFFFFFFFFF NOT AND DUP2 MSTORE PUSH1 0x20 ADD PUSH0 DUP2 MSTORE PUSH1 0x20 ADD PUSH2 0x1487 PUSH2 0x148D JUMP JUMPDEST DUP2 MSTORE POP SWAP1 JUMP JUMPDEST PUSH1 0x40 MLOAD DUP1 PUSH1 0x40 ADD PUSH1 0x40 MSTORE DUP1 PUSH1 0x60 DUP2 MSTORE PUSH1 0x20 ADD PUSH0 DUP2 MSTORE POP SWAP1 JUMP JUMPDEST PUSH0 PUSH1 0x40 MLOAD SWAP1 POP SWAP1 JUMP JUMPDEST PUSH0 DUP1 REVERT JUMPDEST PUSH0 DUP1 REVERT JUMPDEST PUSH0 PUSH20 0xFFFFFFFFFFFFFFFFFFFFFFFFFFFFFFFFFFFFFFFF DUP3 AND SWAP1 POP SWAP2 SWAP1 POP JUMP JUMPDEST PUSH0 PUSH2 0x14E0 DUP3 PUSH2 0x14B7 JUMP JUMPDEST SWAP1 POP SWAP2 SWAP1 POP JUMP JUMPDEST PUSH2 0x14F0 DUP2 PUSH2 0x14D6 JUMP JUMPDEST DUP2 EQ PUSH2 0x14FA JUMPI PUSH0 DUP1 REVERT JUMPDEST POP JUMP JUMPDEST PUSH0 DUP2 CALLDATALOAD SWAP1 POP PUSH2 0x150B DUP2 PUSH2 0x14E7 JUMP JUMPDEST SWAP3 SWAP2 POP POP JUMP JUMPDEST PUSH0 PUSH1 0x20 DUP3 DUP5 SUB SLT ISZERO PUSH2 0x1526 JUMPI PUSH2 0x1525 PUSH2 0x14AF JUMP JUMPDEST JUMPDEST PUSH0 PUSH2 0x1533 DUP5 DUP3 DUP6 ADD PUSH2 0x14FD JUMP JUMPDEST SWAP2 POP POP SWAP3 SWAP2 POP POP JUMP JUMPDEST PUSH0 DUP2 SWAP1 POP SWAP2 SWAP1 POP JUMP JUMPDEST PUSH2 0x154E DUP2 PUSH2 0x153C JUMP JUMPDEST DUP3 MSTORE POP POP JUMP JUMPDEST PUSH0 PUSH1 0x80 DUP3 ADD SWAP1 POP PUSH2 0x1567 PUSH0 DUP4 ADD DUP8 PUSH2 0x1545 JUMP JUMPDEST PUSH2 0x1574 PUSH1 0x20 DUP4 ADD DUP7 PUSH2 0x1545 JUMP JUMPDEST PUSH2 0x1581 PUSH1 0x40 DUP4 ADD DUP6 PUSH2 0x1545 JUMP JUMPDEST PUSH2 0x158E PUSH1 0x60 DUP4 ADD DUP5 PUSH2 0x1545 JUMP JUMPDEST SWAP6 SWAP5 POP POP POP POP POP JUMP JUMPDEST PUSH0 DUP2 MLOAD SWAP1 POP SWAP2 SWAP1 POP JUMP JUMPDEST PUSH0 DUP3 DUP3 MSTORE PUSH1 0x20 DUP3 ADD SWAP1 POP SWAP3 SWAP2 POP POP JUMP JUMPDEST PUSH0 DUP2 SWAP1 POP PUSH1 0x20 DUP3 ADD SWAP1 POP SWAP2 SWAP1 POP JUMP JUMPDEST PUSH2 0x15C9 DUP2 PUSH2 0x153C JUMP JUMPDEST DUP3 MSTORE POP POP JUMP JUMPDEST PUSH1 0x40 DUP3 ADD PUSH0 DUP3 ADD MLOAD PUSH2 0x15E3 PUSH0 DUP6 ADD DUP3 PUSH2 0x15C0 JUMP JUMPDEST POP PUSH1 0x20 DUP3 ADD MLOAD PUSH2 0x15F6 PUSH1 0x20 DUP6 ADD DUP3 PUSH2 0x15C0 JUMP JUMPDEST POP POP POP POP JUMP JUMPDEST PUSH0 PUSH2 0x1607 DUP4 DUP4 PUSH2 0x15CF JUMP JUMPDEST PUSH1 0x40 DUP4 ADD SWAP1 POP SWAP3 SWAP2 POP POP JUMP JUMPDEST PUSH0 PUSH1 0x20 DUP3 ADD SWAP1 POP SWAP2 SWAP1 POP JUMP JUMPDEST PUSH0 PUSH2 0x1629 DUP3 PUSH2 0x1597 JUMP JUMPDEST PUSH2 0x1633 DUP2 DUP6 PUSH2 0x15A1 JUMP JUMPDEST SWAP4 POP PUSH2 0x163E DUP4 PUSH2 0x15B1 JUMP JUMPDEST DUP1 PUSH0 JUMPDEST DUP4 DUP2 LT ISZERO PUSH2 0x166E JUMPI DUP2 MLOAD PUSH2 0x1655 DUP9 DUP3 PUSH2 0x15FC JUMP JUMPDEST SWAP8 POP PUSH2 0x1660 DUP4 PUSH2 0x1613 JUMP JUMPDEST SWAP3 POP POP PUSH1 0x1 DUP2 ADD SWAP1 POP PUSH2 0x1641 JUMP JUMPDEST POP DUP6 SWAP4 POP POP POP POP SWAP3 SWAP2 POP POP JUMP JUMPDEST PUSH0 PUSH1 0x20 DUP3 ADD SWAP1 POP DUP2 DUP2 SUB PUSH0 DUP4 ADD MSTORE PUSH2 0x1693 DUP2 DUP5 PUSH2 0x161F JUMP JUMPDEST SWAP1 POP SWAP3 SWAP2 POP POP JUMP JUMPDEST PUSH0 DUP2 SWAP1 POP SWAP2 SWAP1 POP JUMP JUMPDEST PUSH2 0x16AD DUP2 PUSH2 0x169B JUMP JUMPDEST DUP2 EQ PUSH2 0x16B7 JUMPI PUSH0 DUP1 REVERT JUMPDEST POP JUMP JUMPDEST PUSH0 DUP2 CALLDATALOAD SWAP1 POP PUSH2 0x16C8 DUP2 PUSH2 0x16A4 JUMP JUMPDEST SWAP3 SWAP2 POP POP JUMP JUMPDEST PUSH2 0x16D7 DUP2 PUSH2 0x153C JUMP JUMPDEST DUP2 EQ PUSH2 0x16E1 JUMPI PUSH0 DUP1 REVERT JUMPDEST POP JUMP JUMPDEST PUSH0 DUP2 CALLDATALOAD SWAP1 POP PUSH2 0x16F2 DUP2 PUSH2 0x16CE JUMP JUMPDEST SWAP3 SWAP2 POP POP JUMP JUMPDEST PUSH0 DUP1 PUSH1 0x40 DUP4 DUP6 SUB SLT ISZERO PUSH2 0x170E JUMPI PUSH2 0x170D PUSH2 0x14AF JUMP JUMPDEST JUMPDEST PUSH0 PUSH2 0x171B DUP6 DUP3 DUP7 ADD PUSH2 0x16BA JUMP JUMPDEST SWAP3 POP POP PUSH1 0x20 PUSH2 0x172C DUP6 DUP3 DUP7 ADD PUSH2 0x16E4 JUMP JUMPDEST SWAP2 POP POP SWAP3 POP SWAP3 SWAP1 POP JUMP JUMPDEST PUSH0 PUSH1 0x20 DUP3 DUP5 SUB SLT ISZERO PUSH2 0x174B JUMPI PUSH2 0x174A PUSH2 0x14AF JUMP JUMPDEST JUMPDEST PUSH0 PUSH2 0x1758 DUP5 DUP3 DUP6 ADD PUSH2 0x16E4 JUMP JUMPDEST SWAP2 POP POP SWAP3 SWAP2 POP POP JUMP JUMPDEST PUSH0 PUSH1 0x40 DUP3 ADD SWAP1 POP PUSH2 0x1774 PUSH0 DUP4 ADD DUP6 PUSH2 0x1545 JUMP JUMPDEST PUSH2 0x1781 PUSH1 0x20 DUP4 ADD DUP5 PUSH2 0x1545 JUMP JUMPDEST SWAP4 SWAP3 POP POP POP JUMP JUMPDEST PUSH0 DUP1 REVERT JUMPDEST PUSH0 DUP1 REVERT JUMPDEST PUSH0 PUSH1 0x1F NOT PUSH1 0x1F DUP4 ADD AND SWAP1 POP SWAP2 SWAP1 POP JUMP JUMPDEST PUSH32 0x4E487B7100000000000000000000000000000000000000000000000000000000 PUSH0 MSTORE PUSH1 0x41 PUSH1 0x4 MSTORE PUSH1 0x24 PUSH0 REVERT JUMPDEST PUSH2 0x17D6 DUP3 PUSH2 0x1790 JUMP JUMPDEST DUP2 ADD DUP2 DUP2 LT PUSH8 0xFFFFFFFFFFFFFFFF DUP3 GT OR ISZERO PUSH2 0x17F5 JUMPI PUSH2 0x17F4 PUSH2 0x17A0 JUMP JUMPDEST JUMPDEST DUP1 PUSH1 0x40 MSTORE POP POP POP JUMP JUMPDEST PUSH0 PUSH2 0x1807 PUSH2 0x14A6 JUMP JUMPDEST SWAP1 POP PUSH2 0x1813 DUP3 DUP3 PUSH2 0x17CD JUMP JUMPDEST SWAP2 SWAP1 POP JUMP JUMPDEST PUSH0 PUSH8 0xFFFFFFFFFFFFFFFF DUP3 GT ISZERO PUSH2 0x1832 JUMPI PUSH2 0x1831 PUSH2 0x17A0 JUMP JUMPDEST JUMPDEST PUSH2 0x183B DUP3 PUSH2 0x1790 JUMP JUMPDEST SWAP1 POP PUSH1 0x20 DUP2 ADD SWAP1 POP SWAP2 SWAP1 POP JUMP JUMPDEST DUP3 DUP2 DUP4 CALLDATACOPY PUSH0 DUP4 DUP4 ADD MSTORE POP POP POP JUMP JUMPDEST PUSH0 PUSH2 0x1868 PUSH2 0x1863 DUP5 PUSH2 0x1818 JUMP JUMPDEST PUSH2 0x17FE JUMP JUMPDEST SWAP1 POP DUP3 DUP2 MSTORE PUSH1 0x20 DUP2 ADD DUP5 DUP5 DUP5 ADD GT ISZERO PUSH2 0x1884 JUMPI PUSH2 0x1883 PUSH2 0x178C JUMP JUMPDEST JUMPDEST PUSH2 0x188F DUP5 DUP3 DUP6 PUSH2 0x1848 JUMP JUMPDEST POP SWAP4 SWAP3 POP POP POP JUMP JUMPDEST PUSH0 DUP3 PUSH1 0x1F DUP4 ADD SLT PUSH2 0x18AB JUMPI PUSH2 0x18AA PUSH2 0x1788 JUMP JUMPDEST JUMPDEST DUP2 CALLDATALOAD PUSH2 0x18BB DUP5 DUP3 PUSH1 0x20 DUP7 ADD PUSH2 0x1856 JUMP JUMPDEST SWAP2 POP POP SWAP3 SWAP2 POP POP JUMP JUMPDEST PUSH0 PUSH1 0x20 DUP3 DUP5 SUB SLT ISZERO PUSH2 0x18D9 JUMPI PUSH2 0x18D8 PUSH2 0x14AF JUMP JUMPDEST JUMPDEST PUSH0 DUP3 ADD CALLDATALOAD PUSH8 0xFFFFFFFFFFFFFFFF DUP2 GT ISZERO PUSH2 0x18F6 JUMPI PUSH2 0x18F5 PUSH2 0x14B3 JUMP JUMPDEST JUMPDEST PUSH2 0x1902 DUP5 DUP3 DUP6 ADD PUSH2 0x1897 JUMP JUMPDEST SWAP2 POP POP SWAP3 SWAP2 POP POP JUMP JUMPDEST PUSH2 0x1914 DUP2 PUSH2 0x169B JUMP JUMPDEST DUP3 MSTORE POP POP JUMP JUMPDEST PUSH0 PUSH1 0x20 DUP3 ADD SWAP1 POP PUSH2 0x192D PUSH0 DUP4 ADD DUP5 PUSH2 0x190B JUMP JUMPDEST SWAP3 SWAP2 POP POP JUMP JUMPDEST PUSH0 DUP3 DUP3 MSTORE PUSH1 0x20 DUP3 ADD SWAP1 POP SWAP3 SWAP2 POP POP JUMP JUMPDEST PUSH32 0x536F75726365206D75737420626520746865206F7261636C65206F6620746865 PUSH0 DUP3 ADD MSTORE PUSH32 0x2072657175657374000000000000000000000000000000000000000000000000 PUSH1 0x20 DUP3 ADD MSTORE POP JUMP JUMPDEST PUSH0 PUSH2 0x199D PUSH1 0x28 DUP4 PUSH2 0x1933 JUMP JUMPDEST SWAP2 POP PUSH2 0x19A8 DUP3 PUSH2 0x1943 JUMP JUMPDEST PUSH1 0x40 DUP3 ADD SWAP1 POP SWAP2 SWAP1 POP JUMP JUMPDEST PUSH0 PUSH1 0x20 DUP3 ADD SWAP1 POP DUP2 DUP2 SUB PUSH0 DUP4 ADD MSTORE PUSH2 0x19CA DUP2 PUSH2 0x1991 JUMP JUMPDEST SWAP1 POP SWAP2 SWAP1 POP JUMP JUMPDEST PUSH32 0x4E487B7100000000000000000000000000000000000000000000000000000000 PUSH0 MSTORE PUSH1 0x11 PUSH1 0x4 MSTORE PUSH1 0x24 PUSH0 REVERT JUMPDEST PUSH0 PUSH2 0x1A08 DUP3 PUSH2 0x153C JUMP JUMPDEST SWAP2 POP PUSH2 0x1A13 DUP4 PUSH2 0x153C JUMP JUMPDEST SWAP3 POP DUP3 DUP3 ADD SWAP1 POP DUP1 DUP3 GT ISZERO PUSH2 0x1A2B JUMPI PUSH2 0x1A2A PUSH2 0x19D1 JUMP JUMPDEST JUMPDEST SWAP3 SWAP2 POP POP JUMP JUMPDEST PUSH2 0x1A3A DUP2 PUSH2 0x14D6 JUMP JUMPDEST DUP3 MSTORE POP POP JUMP JUMPDEST PUSH0 PUSH32 0xFFFFFFFF00000000000000000000000000000000000000000000000000000000 DUP3 AND SWAP1 POP SWAP2 SWAP1 POP JUMP JUMPDEST PUSH2 0x1A74 DUP2 PUSH2 0x1A40 JUMP JUMPDEST DUP3 MSTORE POP POP JUMP JUMPDEST PUSH0 DUP2 MLOAD SWAP1 POP SWAP2 SWAP1 POP JUMP JUMPDEST PUSH0 DUP3 DUP3 MSTORE PUSH1 0x20 DUP3 ADD SWAP1 POP SWAP3 SWAP2 POP POP JUMP JUMPDEST PUSH0 JUMPDEST DUP4 DUP2 LT ISZERO PUSH2 0x1AB1 JUMPI DUP1 DUP3 ADD MLOAD DUP2 DUP5 ADD MSTORE PUSH1 0x20 DUP2 ADD SWAP1 POP PUSH2 0x1A96 JUMP JUMPDEST PUSH0 DUP5 DUP5 ADD MSTORE POP POP POP POP JUMP JUMPDEST PUSH0 PUSH2 0x1AC6 DUP3 PUSH2 0x1A7A JUMP JUMPDEST PUSH2 0x1AD0 DUP2 DUP6 PUSH2 0x1A84 JUMP JUMPDEST SWAP4 POP PUSH2 0x1AE0 DUP2 DUP6 PUSH1 0x20 DUP7 ADD PUSH2 0x1A94 JUMP JUMPDEST PUSH2 0x1AE9 DUP2 PUSH2 0x1790 JUMP JUMPDEST DUP5 ADD SWAP2 POP POP SWAP3 SWAP2 POP POP JUMP JUMPDEST PUSH0 PUSH2 0x100 DUP3 ADD SWAP1 POP PUSH2 0x1B08 PUSH0 DUP4 ADD DUP12 PUSH2 0x1A31 JUMP JUMPDEST PUSH2 0x1B15 PUSH1 0x20 DUP4 ADD DUP11 PUSH2 0x1545 JUMP JUMPDEST PUSH2 0x1B22 PUSH1 0x40 DUP4 ADD DUP10 PUSH2 0x190B JUMP JUMPDEST PUSH2 0x1B2F PUSH1 0x60 DUP4 ADD DUP9 PUSH2 0x1A31 JUMP JUMPDEST PUSH2 0x1B3C PUSH1 0x80 DUP4 ADD DUP8 PUSH2 0x1A6B JUMP JUMPDEST PUSH2 0x1B49 PUSH1 0xA0 DUP4 ADD DUP7 PUSH2 0x1545 JUMP JUMPDEST PUSH2 0x1B56 PUSH1 0xC0 DUP4 ADD DUP6 PUSH2 0x1545 JUMP JUMPDEST DUP2 DUP2 SUB PUSH1 0xE0 DUP4 ADD MSTORE PUSH2 0x1B68 DUP2 DUP5 PUSH2 0x1ABC JUMP JUMPDEST SWAP1 POP SWAP10 SWAP9 POP POP POP POP POP POP POP POP POP JUMP JUMPDEST PUSH0 DUP2 SWAP1 POP SWAP2 SWAP1 POP JUMP JUMPDEST PUSH0 PUSH2 0x1B8A DUP3 PUSH2 0x1B77 JUMP JUMPDEST SWAP2 POP PUSH2 0x1B95 DUP4 PUSH2 0x1B77 JUMP JUMPDEST SWAP3 POP DUP3 DUP3 SUB SWAP1 POP DUP2 DUP2 SLT PUSH0 DUP5 SLT AND DUP3 DUP3 SGT PUSH0 DUP6 SLT ISZERO AND OR ISZERO PUSH2 0x1BBA JUMPI PUSH2 0x1BB9 PUSH2 0x19D1 JUMP JUMPDEST JUMPDEST SWAP3 SWAP2 POP POP JUMP JUMPDEST PUSH0 DUP2 SWAP1 POP SWAP2 SWAP1 POP JUMP JUMPDEST PUSH0 PUSH2 0x1BE3 PUSH2 0x1BDE PUSH2 0x1BD9 DUP5 PUSH2 0x14B7 JUMP JUMPDEST PUSH2 0x1BC0 JUMP JUMPDEST PUSH2 0x14B7 JUMP JUMPDEST SWAP1 POP SWAP2 SWAP1 POP JUMP JUMPDEST PUSH0 PUSH2 0x1BF4 DUP3 PUSH2 0x1BC9 JUMP JUMPDEST SWAP1 POP SWAP2 SWAP1 POP JUMP JUMPDEST PUSH0 PUSH2 0x1C05 DUP3 PUSH2 0x1BEA JUMP JUMPDEST SWAP1 POP SWAP2 SWAP1 POP JUMP JUMPDEST PUSH0 DUP2 PUSH1 0x60 SHL SWAP1 POP SWAP2 SWAP1 POP JUMP JUMPDEST PUSH0 PUSH2 0x1C22 DUP3 PUSH2 0x1C0C JUMP JUMPDEST SWAP1 POP SWAP2 SWAP1 POP JUMP JUMPDEST PUSH0 PUSH2 0x1C33 DUP3 PUSH2 0x1C18 JUMP JUMPDEST SWAP1 POP SWAP2 SWAP1 POP JUMP JUMPDEST PUSH2 0x1C4B PUSH2 0x1C46 DUP3 PUSH2 0x1BFB JUMP JUMPDEST PUSH2 0x1C29 JUMP JUMPDEST DUP3 MSTORE POP POP JUMP JUMPDEST PUSH0 DUP2 SWAP1 POP SWAP2 SWAP1 POP JUMP JUMPDEST PUSH2 0x1C6B PUSH2 0x1C66 DUP3 PUSH2 0x153C JUMP JUMPDEST PUSH2 0x1C51 JUMP JUMPDEST DUP3 MSTORE POP POP JUMP JUMPDEST PUSH0 PUSH2 0x1C7C DUP3 DUP6 PUSH2 0x1C3A JUMP JUMPDEST PUSH1 0x14 DUP3 ADD SWAP2 POP PUSH2 0x1C8C DUP3 DUP5 PUSH2 0x1C5A JUMP JUMPDEST PUSH1 0x20 DUP3 ADD SWAP2 POP DUP2 SWAP1 POP SWAP4 SWAP3 POP POP POP JUMP JUMPDEST PUSH0 PUSH1 0x60 DUP3 ADD SWAP1 POP PUSH2 0x1CAF PUSH0 DUP4 ADD DUP7 PUSH2 0x1A31 JUMP JUMPDEST PUSH2 0x1CBC PUSH1 0x20 DUP4 ADD DUP6 PUSH2 0x1545 JUMP JUMPDEST DUP2 DUP2 SUB PUSH1 0x40 DUP4 ADD MSTORE PUSH2 0x1CCE DUP2 DUP5 PUSH2 0x1ABC JUMP JUMPDEST SWAP1 POP SWAP5 SWAP4 POP POP POP POP JUMP JUMPDEST PUSH0 DUP2 ISZERO ISZERO SWAP1 POP SWAP2 SWAP1 POP JUMP JUMPDEST PUSH2 0x1CEC DUP2 PUSH2 0x1CD8 JUMP JUMPDEST DUP2 EQ PUSH2 0x1CF6 JUMPI PUSH0 DUP1 REVERT JUMPDEST POP JUMP JUMPDEST PUSH0 DUP2 MLOAD SWAP1 POP PUSH2 0x1D07 DUP2 PUSH2 0x1CE3 JUMP JUMPDEST SWAP3 SWAP2 POP POP JUMP JUMPDEST PUSH0 PUSH1 0x20 DUP3 DUP5 SUB SLT ISZERO PUSH2 0x1D22 JUMPI PUSH2 0x1D21 PUSH2 0x14AF JUMP JUMPDEST JUMPDEST PUSH0 PUSH2 0x1D2F DUP5 DUP3 DUP6 ADD PUSH2 0x1CF9 JUMP JUMPDEST SWAP2 POP POP SWAP3 SWAP2 POP POP JUMP JUMPDEST PUSH32 0x756E61626C6520746F207472616E73666572416E6443616C6C20746F206F7261 PUSH0 DUP3 ADD MSTORE PUSH32 0x636C650000000000000000000000000000000000000000000000000000000000 PUSH1 0x20 DUP3 ADD MSTORE POP JUMP JUMPDEST PUSH0 PUSH2 0x1D92 PUSH1 0x23 DUP4 PUSH2 0x1933 JUMP JUMPDEST SWAP2 POP PUSH2 0x1D9D DUP3 PUSH2 0x1D38 JUMP JUMPDEST PUSH1 0x40 DUP3 ADD SWAP1 POP SWAP2 SWAP1 POP JUMP JUMPDEST PUSH0 PUSH1 0x20 DUP3 ADD SWAP1 POP DUP2 DUP2 SUB PUSH0 DUP4 ADD MSTORE PUSH2 0x1DBF DUP2 PUSH2 0x1D86 JUMP JUMPDEST SWAP1 POP SWAP2 SWAP1 POP JUMP JUMPDEST PUSH32 0x4E487B7100000000000000000000000000000000000000000000000000000000 PUSH0 MSTORE PUSH1 0x12 PUSH1 0x4 MSTORE PUSH1 0x24 PUSH0 REVERT JUMPDEST PUSH0 PUSH2 0x1DFD DUP3 PUSH2 0x153C JUMP JUMPDEST SWAP2 POP PUSH2 0x1E08 DUP4 PUSH2 0x153C JUMP JUMPDEST SWAP3 POP DUP3 PUSH2 0x1E18 JUMPI PUSH2 0x1E17 PUSH2 0x1DC6 JUMP JUMPDEST JUMPDEST DUP3 DUP3 MOD SWAP1 POP SWAP3 SWAP2 POP POP JUMP JUMPDEST PUSH0 PUSH2 0x1E2D DUP3 PUSH2 0x153C JUMP JUMPDEST SWAP2 POP PUSH2 0x1E38 DUP4 PUSH2 0x153C JUMP JUMPDEST SWAP3 POP DUP3 DUP3 SUB SWAP1 POP DUP2 DUP2 GT ISZERO PUSH2 0x1E50 JUMPI PUSH2 0x1E4F PUSH2 0x19D1 JUMP JUMPDEST JUMPDEST SWAP3 SWAP2 POP POP JUMP JUMPDEST PUSH0 PUSH1 0x20 DUP3 ADD SWAP1 POP PUSH2 0x1E69 PUSH0 DUP4 ADD DUP5 PUSH2 0x1545 JUMP JUMPDEST SWAP3 SWAP2 POP POP JUMP JUMPDEST PUSH0 PUSH2 0x1E79 DUP3 PUSH2 0x153C JUMP JUMPDEST SWAP2 POP PUSH2 0x1E84 DUP4 PUSH2 0x153C JUMP JUMPDEST SWAP3 POP DUP3 DUP3 MUL PUSH2 0x1E92 DUP2 PUSH2 0x153C JUMP JUMPDEST SWAP2 POP DUP3 DUP3 DIV DUP5 EQ DUP4 ISZERO OR PUSH2 0x1EA9 JUMPI PUSH2 0x1EA8 PUSH2 0x19D1 JUMP JUMPDEST JUMPDEST POP SWAP3 SWAP2 POP POP JUMP JUMPDEST PUSH0 DUP2 PUSH1 0x1 SHR SWAP1 POP SWAP2 SWAP1 POP JUMP JUMPDEST PUSH0 DUP1 DUP3 SWAP2 POP DUP4 SWAP1 POP JUMPDEST PUSH1 0x1 DUP6 GT ISZERO PUSH2 0x1F05 JUMPI DUP1 DUP7 DIV DUP2 GT ISZERO PUSH2 0x1EE1 JUMPI PUSH2 0x1EE0 PUSH2 0x19D1 JUMP JUMPDEST JUMPDEST PUSH1 0x1 DUP6 AND ISZERO PUSH2 0x1EF0 JUMPI DUP1 DUP3 MUL SWAP2 POP JUMPDEST DUP1 DUP2 MUL SWAP1 POP PUSH2 0x1EFE DUP6 PUSH2 0x1EB0 JUMP JUMPDEST SWAP5 POP PUSH2 0x1EC5 JUMP JUMPDEST SWAP5 POP SWAP5 SWAP3 POP POP POP JUMP JUMPDEST PUSH0 DUP3 PUSH2 0x1F1D JUMPI PUSH1 0x1 SWAP1 POP PUSH2 0x1FD8 JUMP JUMPDEST DUP2 PUSH2 0x1F2A JUMPI PUSH0 SWAP1 POP PUSH2 0x1FD8 JUMP JUMPDEST DUP2 PUSH1 0x1 DUP2 EQ PUSH2 0x1F40 JUMPI PUSH1 0x2 DUP2 EQ PUSH2 0x1F4A JUMPI PUSH2 0x1F79 JUMP JUMPDEST PUSH1 0x1 SWAP2 POP POP PUSH2 0x1FD8 JUMP JUMPDEST PUSH1 0xFF DUP5 GT ISZERO PUSH2 0x1F5C JUMPI PUSH2 0x1F5B PUSH2 0x19D1 JUMP JUMPDEST JUMPDEST DUP4 PUSH1 0x2 EXP SWAP2 POP DUP5 DUP3 GT ISZERO PUSH2 0x1F73 JUMPI PUSH2 0x1F72 PUSH2 0x19D1 JUMP JUMPDEST JUMPDEST POP PUSH2 0x1FD8 JUMP JUMPDEST POP PUSH1 0x20 DUP4 LT PUSH2 0x133 DUP4 LT AND PUSH1 0x4E DUP5 LT PUSH1 0xB DUP5 LT AND OR ISZERO PUSH2 0x1FAE JUMPI DUP3 DUP3 EXP SWAP1 POP DUP4 DUP2 GT ISZERO PUSH2 0x1FA9 JUMPI PUSH2 0x1FA8 PUSH2 0x19D1 JUMP JUMPDEST JUMPDEST PUSH2 0x1FD8 JUMP JUMPDEST PUSH2 0x1FBB DUP5 DUP5 DUP5 PUSH1 0x1 PUSH2 0x1EBC JUMP JUMPDEST SWAP3 POP SWAP1 POP DUP2 DUP5 DIV DUP2 GT ISZERO PUSH2 0x1FD2 JUMPI PUSH2 0x1FD1 PUSH2 0x19D1 JUMP JUMPDEST JUMPDEST DUP2 DUP2 MUL SWAP1 POP JUMPDEST SWAP4 SWAP3 POP POP POP JUMP JUMPDEST PUSH0 PUSH2 0x1FE9 DUP3 PUSH2 0x153C JUMP JUMPDEST SWAP2 POP PUSH2 0x1FF4 DUP4 PUSH2 0x153C JUMP JUMPDEST SWAP3 POP PUSH2 0x2021 PUSH32 0xFFFFFFFFFFFFFFFFFFFFFFFFFFFFFFFFFFFFFFFFFFFFFFFFFFFFFFFFFFFFFFFF DUP5 DUP5 PUSH2 0x1F0E JUMP JUMPDEST SWAP1 POP SWAP3 SWAP2 POP POP JUMP INVALID PUSH9 0x747470733A2F2F786B CODESIZE PUSH20 0x6967636366342E657865637574652D6170692E75 PUSH20 0x2D656173742D312E616D617A6F6E6177732E636F PUSH14 0x2F70726F642F70726F6475637469 PUSH16 0x6EA2646970667358221220DC2160EEEB 0xDA 0xDB ISZERO 0x4B 0xEC 0x4B DUP1 0xE9 PUSH1 0x1C MLOAD PUSH10 0xE1E8911CB0FED94F45CA BASEFEE DUP15 SWAP10 0xC9 PUSH21 0x64736F6C6343000814003300000000000000000000 "
		},
		"gasEstimates": {
			"creation": {
				"codeDepositCost": "1671400",
				"executionCost": "infinite",
				"totalCost": "infinite"
			},
			"external": {
				"consumptionDataPoints(uint256)": "infinite",
				"energyData(address)": "infinite",
				"fulfillEnergyConsumptionData(bytes32,uint256)": "141425",
				"fulfillEnergyProductionData(bytes32,uint256)": "142914",
				"getConsumptionDataPoints()": "infinite",
				"getProductionDataPoints()": "infinite",
				"getUserEnergyData(address)": "infinite",
				"productionDataPoints(uint256)": "infinite",
				"requestEnergyConsumptionData()": "infinite",
				"requestEnergyProductionData()": "infinite",
				"stringToBytes32(string)": "infinite"
			}
		},
		"methodIdentifiers": {
			"consumptionDataPoints(uint256)": "5e56557f",
			"energyData(address)": "0a2559cc",
			"fulfillEnergyConsumptionData(bytes32,uint256)": "e2b0d1e5",
			"fulfillEnergyProductionData(bytes32,uint256)": "3b2fb9aa",
			"getConsumptionDataPoints()": "f7775099",
			"getProductionDataPoints()": "2fccbcc7",
			"getUserEnergyData(address)": "94ef486b",
			"productionDataPoints(uint256)": "4389130d",
			"requestEnergyConsumptionData()": "a8c8ed29",
			"requestEnergyProductionData()": "68e96328",
			"stringToBytes32(string)": "cfb51928"
		}
	},
	"abi": [
		{
			"inputs": [],
			"stateMutability": "nonpayable",
			"type": "constructor"
		},
		{
			"anonymous": false,
			"inputs": [
				{
					"indexed": true,
					"internalType": "bytes32",
					"name": "id",
					"type": "bytes32"
				}
			],
			"name": "ChainlinkCancelled",
			"type": "event"
		},
		{
			"anonymous": false,
			"inputs": [
				{
					"indexed": true,
					"internalType": "bytes32",
					"name": "id",
					"type": "bytes32"
				}
			],
			"name": "ChainlinkFulfilled",
			"type": "event"
		},
		{
			"anonymous": false,
			"inputs": [
				{
					"indexed": true,
					"internalType": "bytes32",
					"name": "id",
					"type": "bytes32"
				}
			],
			"name": "ChainlinkRequested",
			"type": "event"
		},
		{
			"anonymous": false,
			"inputs": [
				{
					"indexed": true,
					"internalType": "bytes32",
					"name": "requestId",
					"type": "bytes32"
				},
				{
					"indexed": true,
					"internalType": "uint256",
					"name": "_unitsProduced",
					"type": "uint256"
				}
			],
			"name": "RequestFulfilled",
			"type": "event"
		},
		{
			"inputs": [
				{
					"internalType": "uint256",
					"name": "",
					"type": "uint256"
				}
			],
			"name": "consumptionDataPoints",
			"outputs": [
				{
					"internalType": "uint256",
					"name": "timestamp",
					"type": "uint256"
				},
				{
					"internalType": "uint256",
					"name": "value",
					"type": "uint256"
				}
			],
			"stateMutability": "view",
			"type": "function"
		},
		{
			"inputs": [
				{
					"internalType": "address",
					"name": "",
					"type": "address"
				}
			],
			"name": "energyData",
			"outputs": [
				{
					"internalType": "uint256",
					"name": "productionTimestamp",
					"type": "uint256"
				},
				{
					"internalType": "uint256",
					"name": "unitsProduced",
					"type": "uint256"
				},
				{
					"internalType": "uint256",
					"name": "consumptionTimestamp",
					"type": "uint256"
				},
				{
					"internalType": "uint256",
					"name": "unitsConsumed",
					"type": "uint256"
				}
			],
			"stateMutability": "view",
			"type": "function"
		},
		{
			"inputs": [
				{
					"internalType": "bytes32",
					"name": "_requestId",
					"type": "bytes32"
				},
				{
					"internalType": "uint256",
					"name": "_unitsConsumed",
					"type": "uint256"
				}
			],
			"name": "fulfillEnergyConsumptionData",
			"outputs": [],
			"stateMutability": "nonpayable",
			"type": "function"
		},
		{
			"inputs": [
				{
					"internalType": "bytes32",
					"name": "_requestId",
					"type": "bytes32"
				},
				{
					"internalType": "uint256",
					"name": "_unitsProduced",
					"type": "uint256"
				}
			],
			"name": "fulfillEnergyProductionData",
			"outputs": [],
			"stateMutability": "nonpayable",
			"type": "function"
		},
		{
			"inputs": [],
			"name": "getConsumptionDataPoints",
			"outputs": [
				{
					"components": [
						{
							"internalType": "uint256",
							"name": "timestamp",
							"type": "uint256"
						},
						{
							"internalType": "uint256",
							"name": "value",
							"type": "uint256"
						}
					],
					"internalType": "struct EnergyDataContract.DataPoint[]",
					"name": "",
					"type": "tuple[]"
				}
			],
			"stateMutability": "view",
			"type": "function"
		},
		{
			"inputs": [],
			"name": "getProductionDataPoints",
			"outputs": [
				{
					"components": [
						{
							"internalType": "uint256",
							"name": "timestamp",
							"type": "uint256"
						},
						{
							"internalType": "uint256",
							"name": "value",
							"type": "uint256"
						}
					],
					"internalType": "struct EnergyDataContract.DataPoint[]",
					"name": "",
					"type": "tuple[]"
				}
			],
			"stateMutability": "view",
			"type": "function"
		},
		{
			"inputs": [
				{
					"internalType": "address",
					"name": "_address",
					"type": "address"
				}
			],
			"name": "getUserEnergyData",
			"outputs": [
				{
					"internalType": "uint256",
					"name": "",
					"type": "uint256"
				},
				{
					"internalType": "uint256",
					"name": "",
					"type": "uint256"
				},
				{
					"internalType": "uint256",
					"name": "",
					"type": "uint256"
				},
				{
					"internalType": "uint256",
					"name": "",
					"type": "uint256"
				}
			],
			"stateMutability": "view",
			"type": "function"
		},
		{
			"inputs": [
				{
					"internalType": "uint256",
					"name": "",
					"type": "uint256"
				}
			],
			"name": "productionDataPoints",
			"outputs": [
				{
					"internalType": "uint256",
					"name": "timestamp",
					"type": "uint256"
				},
				{
					"internalType": "uint256",
					"name": "value",
					"type": "uint256"
				}
			],
			"stateMutability": "view",
			"type": "function"
		},
		{
			"inputs": [],
			"name": "requestEnergyConsumptionData",
			"outputs": [],
			"stateMutability": "nonpayable",
			"type": "function"
		},
		{
			"inputs": [],
			"name": "requestEnergyProductionData",
			"outputs": [],
			"stateMutability": "nonpayable",
			"type": "function"
		},
		{
			"inputs": [
				{
					"internalType": "string",
					"name": "source",
					"type": "string"
				}
			],
			"name": "stringToBytes32",
			"outputs": [
				{
					"internalType": "bytes32",
					"name": "result",
					"type": "bytes32"
				}
			],
			"stateMutability": "pure",
			"type": "function"
		}
	]
}